{"contracts/LootChest.sol":{"LootChest":{"abi":[{"inputs":[{"internalType":"address","name":"coordinatorAddress","type":"address"},{"internalType":"uint256","name":"_subscriptionId","type":"uint256"},{"internalType":"bytes32","name":"_keyHash","type":"bytes32"},{"internalType":"uint32","name":"_callbackGasLimit","type":"uint32"},{"internalType":"uint16","name":"_requestConfirmations","type":"uint16"},{"internalType":"uint32","name":"_numWords","type":"uint32"}],"stateMutability":"nonpayable","type":"constructor"},{"inputs":[{"internalType":"address","name":"have","type":"address"},{"internalType":"address","name":"want","type":"address"}],"name":"OnlyCoordinatorCanFulfill","type":"error"},{"inputs":[{"internalType":"address","name":"have","type":"address"},{"internalType":"address","name":"owner","type":"address"},{"internalType":"address","name":"coordinator","type":"address"}],"name":"OnlyOwnerOrCoordinator","type":"error"},{"inputs":[],"name":"ZeroAddress","type":"error"},{"anonymous":false,"inputs":[{"indexed":false,"internalType":"address","name":"vrfCoordinator","type":"address"}],"name":"CoordinatorSet","type":"event"},{"anonymous":false,"inputs":[{"indexed":true,"internalType":"string","name":"matchId","type":"string"},{"indexed":true,"internalType":"address","name":"winner","type":"address"},{"indexed":false,"internalType":"uint256","name":"itemId","type":"uint256"},{"indexed":false,"internalType":"uint256","name":"randomness","type":"uint256"},{"indexed":false,"internalType":"uint256","name":"timestamp","type":"uint256"}],"name":"LootAwarded","type":"event"},{"anonymous":false,"inputs":[{"indexed":true,"internalType":"uint256","name":"requestId","type":"uint256"},{"indexed":true,"internalType":"string","name":"matchId","type":"string"},{"indexed":true,"internalType":"address","name":"winner","type":"address"}],"name":"LootRequested","type":"event"},{"anonymous":false,"inputs":[{"indexed":true,"internalType":"address","name":"from","type":"address"},{"indexed":true,"internalType":"address","name":"to","type":"address"}],"name":"OwnershipTransferRequested","type":"event"},{"anonymous":false,"inputs":[{"indexed":true,"internalType":"address","name":"from","type":"address"},{"indexed":true,"internalType":"address","name":"to","type":"address"}],"name":"OwnershipTransferred","type":"event"},{"inputs":[],"name":"acceptOwnership","outputs":[],"stateMutability":"nonpayable","type":"function"},{"inputs":[],"name":"callbackGasLimit","outputs":[{"internalType":"uint32","name":"","type":"uint32"}],"stateMutability":"view","type":"function"},{"inputs":[{"internalType":"string","name":"matchId","type":"string"}],"name":"getLoot","outputs":[{"internalType":"bool","name":"fulfilled","type":"bool"},{"internalType":"address","name":"winner","type":"address"},{"internalType":"uint256","name":"itemId","type":"uint256"},{"internalType":"uint256","name":"randomness","type":"uint256"},{"internalType":"uint256","name":"timestamp","type":"uint256"},{"internalType":"uint256","name":"requestId","type":"uint256"}],"stateMutability":"view","type":"function"},{"inputs":[],"name":"keyHash","outputs":[{"internalType":"bytes32","name":"","type":"bytes32"}],"stateMutability":"view","type":"function"},{"inputs":[],"name":"numWords","outputs":[{"internalType":"uint32","name":"","type":"uint32"}],"stateMutability":"view","type":"function"},{"inputs":[],"name":"owner","outputs":[{"internalType":"address","name":"","type":"address"}],"stateMutability":"view","type":"function"},{"inputs":[{"internalType":"uint256","name":"","type":"uint256"}],"name":"pending","outputs":[{"internalType":"string","name":"matchId","type":"string"},{"internalType":"address","name":"winner","type":"address"},{"internalType":"bool","name":"exists","type":"bool"}],"stateMutability":"view","type":"function"},{"inputs":[{"internalType":"uint256","name":"requestId","type":"uint256"},{"internalType":"uint256[]","name":"randomWords","type":"uint256[]"}],"name":"rawFulfillRandomWords","outputs":[],"stateMutability":"nonpayable","type":"function"},{"inputs":[],"name":"requestConfirmations","outputs":[{"internalType":"uint16","name":"","type":"uint16"}],"stateMutability":"view","type":"function"},{"inputs":[{"internalType":"string","name":"","type":"string"}],"name":"requestIdByMatch","outputs":[{"internalType":"uint256","name":"","type":"uint256"}],"stateMutability":"view","type":"function"},{"inputs":[{"internalType":"string","name":"matchId","type":"string"},{"internalType":"address","name":"winner","type":"address"}],"name":"requestLoot","outputs":[{"internalType":"uint256","name":"requestId","type":"uint256"}],"stateMutability":"nonpayable","type":"function"},{"inputs":[],"name":"s_vrfCoordinator","outputs":[{"internalType":"contract IVRFCoordinatorV2Plus","name":"","type":"address"}],"stateMutability":"view","type":"function"},{"inputs":[{"internalType":"address","name":"_vrfCoordinator","type":"address"}],"name":"setCoordinator","outputs":[],"stateMutability":"nonpayable","type":"function"},{"inputs":[{"internalType":"uint256","name":"_subscriptionId","type":"uint256"},{"internalType":"bytes32","name":"_keyHash","type":"bytes32"},{"internalType":"uint32","name":"_callbackGasLimit","type":"uint32"},{"internalType":"uint16","name":"_requestConfirmations","type":"uint16"},{"internalType":"uint32","name":"_numWords","type":"uint32"}],"name":"setVrfConfig","outputs":[],"stateMutability":"nonpayable","type":"function"},{"inputs":[],"name":"subscriptionId","outputs":[{"internalType":"uint256","name":"","type":"uint256"}],"stateMutability":"view","type":"function"},{"inputs":[{"internalType":"address","name":"to","type":"address"}],"name":"transferOwnership","outputs":[],"stateMutability":"nonpayable","type":"function"}],"evm":{"bytecode":{"linkReferences":{},"object":"60806040523480156200001157600080fd5b506040516200306b3803806200306b83398181016040528101906200003791906200055a565b85338060008073ffffffffffffffffffffffffffffffffffffffff168273ffffffffffffffffffffffffffffffffffffffff1603620000ad576040517f08c379a0000000000000000000000000000000000000000000000000000000008152600401620000a49062000657565b60405180910390fd5b816000806101000a81548173ffffffffffffffffffffffffffffffffffffffff021916908373ffffffffffffffffffffffffffffffffffffffff160217905550600073ffffffffffffffffffffffffffffffffffffffff168173ffffffffffffffffffffffffffffffffffffffff161462000134576200013381620002cb60201b60201c565b5b505050600073ffffffffffffffffffffffffffffffffffffffff168173ffffffffffffffffffffffffffffffffffffffff16036200019e576040517fd92e233d00000000000000000000000000000000000000000000000000000000815260040160405180910390fd5b80600260006101000a81548173ffffffffffffffffffffffffffffffffffffffff021916908373ffffffffffffffffffffffffffffffffffffffff16021790555050600073ffffffffffffffffffffffffffffffffffffffff168673ffffffffffffffffffffffffffffffffffffffff160362000252576040517f08c379a00000000000000000000000000000000000000000000000000000000081526004016200024990620006c9565b60405180910390fd5b846003819055508360048190555082600560006101000a81548163ffffffff021916908363ffffffff16021790555081600560046101000a81548161ffff021916908361ffff16021790555080600560066101000a81548163ffffffff021916908363ffffffff1602179055505050505050506200075d565b3373ffffffffffffffffffffffffffffffffffffffff168173ffffffffffffffffffffffffffffffffffffffff16036200033c576040517f08c379a000000000000000000000000000000000000000000000000000000000815260040162000333906200073b565b60405180910390fd5b80600160006101000a81548173ffffffffffffffffffffffffffffffffffffffff021916908373ffffffffffffffffffffffffffffffffffffffff1602179055508073ffffffffffffffffffffffffffffffffffffffff1660008054906101000a900473ffffffffffffffffffffffffffffffffffffffff1673ffffffffffffffffffffffffffffffffffffffff167fed8889f560326eb138920d842192f0eb3dd22b4f139c87a2c57538e05bae127860405160405180910390a350565b600080fd5b600073ffffffffffffffffffffffffffffffffffffffff82169050919050565b60006200042c82620003ff565b9050919050565b6200043e816200041f565b81146200044a57600080fd5b50565b6000815190506200045e8162000433565b92915050565b6000819050919050565b620004798162000464565b81146200048557600080fd5b50565b60008151905062000499816200046e565b92915050565b6000819050919050565b620004b4816200049f565b8114620004c057600080fd5b50565b600081519050620004d481620004a9565b92915050565b600063ffffffff82169050919050565b620004f581620004da565b81146200050157600080fd5b50565b6000815190506200051581620004ea565b92915050565b600061ffff82169050919050565b62000534816200051b565b81146200054057600080fd5b50565b600081519050620005548162000529565b92915050565b60008060008060008060c087890312156200057a5762000579620003fa565b5b60006200058a89828a016200044d565b96505060206200059d89828a0162000488565b9550506040620005b089828a01620004c3565b9450506060620005c389828a0162000504565b9350506080620005d689828a0162000543565b92505060a0620005e989828a0162000504565b9150509295509295509295565b600082825260208201905092915050565b7f43616e6e6f7420736574206f776e657220746f207a65726f0000000000000000600082015250565b60006200063f601883620005f6565b91506200064c8262000607565b602082019050919050565b60006020820190508181036000830152620006728162000630565b9050919050565b7f496e76616c696420636f6f7264696e61746f7200000000000000000000000000600082015250565b6000620006b1601383620005f6565b9150620006be8262000679565b602082019050919050565b60006020820190508181036000830152620006e481620006a2565b9050919050565b7f43616e6e6f74207472616e7366657220746f2073656c66000000000000000000600082015250565b600062000723601783620005f6565b91506200073082620006eb565b602082019050919050565b60006020820190508181036000830152620007568162000714565b9050919050565b6128fe806200076d6000396000f3fe608060405234801561001057600080fd5b50600436106101005760003560e01c80637ccfd7fc116100975780639eccacf6116100665780639eccacf61461028e578063af6e6238146102ac578063b0fb162f146102de578063f2fde38b146102fc57610100565b80637ccfd7fc146102015780638da5cb5b1461021f5780638ea981171461023d57806391a520891461025957610100565b80633eed3f94116100d35780633eed3f941461018d57806358ea9f7a146101bd57806361728f39146101d957806379ba5097146101f757610100565b806309c1ba2e146101055780630a051118146101235780631fe543e31461015357806324f746971461016f575b600080fd5b61010d610318565b60405161011a91906115f7565b60405180910390f35b61013d600480360381019061013891906116e9565b61031e565b60405161014a91906115f7565b60405180910390f35b61016d600480360381019061016891906117cb565b610823565b005b6101776108e9565b604051610184919061184a565b60405180910390f35b6101a760048036038101906101a291906119a6565b6108ff565b6040516101b491906115f7565b60405180910390f35b6101d760048036038101906101d29190611a8b565b61092d565b005b6101e16109a9565b6040516101ee9190611b15565b60405180910390f35b6101ff6109af565b005b610209610b44565b604051610216919061184a565b60405180910390f35b610227610b5a565b6040516102349190611b3f565b60405180910390f35b61025760048036038101906102529190611b5a565b610b83565b005b610273600480360381019061026e9190611b87565b610d64565b60405161028596959493929190611bef565b60405180910390f35b610296610e82565b6040516102a39190611caf565b60405180910390f35b6102c660048036038101906102c19190611cca565b610ea8565b6040516102d593929190611d76565b60405180910390f35b6102e6610f87565b6040516102f39190611dc3565b60405180910390f35b61031660048036038101906103119190611b5a565b610f9b565b005b60035481565b6000610328610faf565b6000848490501161036e576040517f08c379a000000000000000000000000000000000000000000000000000000000815260040161036590611e2a565b60405180910390fd5b600073ffffffffffffffffffffffffffffffffffffffff168273ffffffffffffffffffffffffffffffffffffffff16036103dd576040517f08c379a00000000000000000000000000000000000000000000000000000000081526004016103d490611e96565b60405180910390fd5b6000600785856040516103f1929190611ee6565b90815260200160405180910390205414610440576040517f08c379a000000000000000000000000000000000000000000000000000000000815260040161043790611f4b565b60405180910390fd5b600060035403610485576040517f08c379a000000000000000000000000000000000000000000000000000000000815260040161047c90611fb7565b60405180910390fd5b6000801b600454036104cc576040517f08c379a00000000000000000000000000000000000000000000000000000000081526004016104c390612023565b60405180910390fd5b600073ffffffffffffffffffffffffffffffffffffffff16600260009054906101000a900473ffffffffffffffffffffffffffffffffffffffff1673ffffffffffffffffffffffffffffffffffffffff160361055d576040517f08c379a00000000000000000000000000000000000000000000000000000000081526004016105549061208f565b60405180910390fd5b60006040518060c0016040528060045481526020016003548152602001600560049054906101000a900461ffff1661ffff168152602001600560009054906101000a900463ffffffff1663ffffffff168152602001600560069054906101000a900463ffffffff1663ffffffff1681526020016105ea60405180602001604052806000151581525061103f565b8152509050600260009054906101000a900473ffffffffffffffffffffffffffffffffffffffff1673ffffffffffffffffffffffffffffffffffffffff16639b1c385e826040518263ffffffff1660e01b815260040161064a91906121c9565b6020604051808303816000875af1158015610669573d6000803e3d6000fd5b505050506040513d601f19601f8201168201806040525081019061068d9190612200565b9150604051806060016040528086868080601f016020809104026020016040519081016040528093929190818152602001838380828437600081840152601f19601f8201169050808301925050505050505081526020018473ffffffffffffffffffffffffffffffffffffffff1681526020016001151581525060066000848152602001908152602001600020600082015181600001908161072f919061242f565b5060208201518160010160006101000a81548173ffffffffffffffffffffffffffffffffffffffff021916908373ffffffffffffffffffffffffffffffffffffffff16021790555060408201518160010160146101000a81548160ff02191690831515021790555090505081600786866040516107ad929190611ee6565b9081526020016040518091039020819055508273ffffffffffffffffffffffffffffffffffffffff1685856040516107e6929190611ee6565b6040518091039020837f515c51446e033867e77a65a00c6c344d76fa4a3375b158093a78f728ad9d043860405160405180910390a4509392505050565b600260009054906101000a900473ffffffffffffffffffffffffffffffffffffffff1673ffffffffffffffffffffffffffffffffffffffff163373ffffffffffffffffffffffffffffffffffffffff16146108d95733600260009054906101000a900473ffffffffffffffffffffffffffffffffffffffff166040517f1cf993f40000000000000000000000000000000000000000000000000000000081526004016108d0929190612501565b60405180910390fd5b6108e48383836110d7565b505050565b600560009054906101000a900463ffffffff1681565b6007818051602081018201805184825260208301602085012081835280955050505050506000915090505481565b610935610faf565b846003819055508360048190555082600560006101000a81548163ffffffff021916908363ffffffff16021790555081600560046101000a81548161ffff021916908361ffff16021790555080600560066101000a81548163ffffffff021916908363ffffffff1602179055505050505050565b60045481565b600160009054906101000a900473ffffffffffffffffffffffffffffffffffffffff1673ffffffffffffffffffffffffffffffffffffffff163373ffffffffffffffffffffffffffffffffffffffff1614610a3f576040517f08c379a0000000000000000000000000000000000000000000000000000000008152600401610a3690612576565b60405180910390fd5b60008060009054906101000a900473ffffffffffffffffffffffffffffffffffffffff169050336000806101000a81548173ffffffffffffffffffffffffffffffffffffffff021916908373ffffffffffffffffffffffffffffffffffffffff1602179055506000600160006101000a81548173ffffffffffffffffffffffffffffffffffffffff021916908373ffffffffffffffffffffffffffffffffffffffff1602179055503373ffffffffffffffffffffffffffffffffffffffff168173ffffffffffffffffffffffffffffffffffffffff167f8be0079c531659141344cd1fd0a4f28419497f9722a3daafe3b4186f6b6457e060405160405180910390a350565b600560069054906101000a900463ffffffff1681565b60008060009054906101000a900473ffffffffffffffffffffffffffffffffffffffff16905090565b610b8b610b5a565b73ffffffffffffffffffffffffffffffffffffffff163373ffffffffffffffffffffffffffffffffffffffff1614158015610c145750600260009054906101000a900473ffffffffffffffffffffffffffffffffffffffff1673ffffffffffffffffffffffffffffffffffffffff163373ffffffffffffffffffffffffffffffffffffffff1614155b15610c835733610c22610b5a565b600260009054906101000a900473ffffffffffffffffffffffffffffffffffffffff166040517f061db9c1000000000000000000000000000000000000000000000000000000008152600401610c7a93929190612596565b60405180910390fd5b600073ffffffffffffffffffffffffffffffffffffffff168173ffffffffffffffffffffffffffffffffffffffff1603610ce9576040517fd92e233d00000000000000000000000000000000000000000000000000000000815260040160405180910390fd5b80600260006101000a81548173ffffffffffffffffffffffffffffffffffffffff021916908373ffffffffffffffffffffffffffffffffffffffff1602179055507fd1a6a14209a385a964d036e404cb5cfb71f4000cdb03c9366292430787261be681604051610d599190611b3f565b60405180910390a150565b600080600080600080600060088989604051610d81929190611ee6565b90815260200160405180910390206040518060a00160405290816000820160009054906101000a900460ff161515151581526020016000820160019054906101000a900473ffffffffffffffffffffffffffffffffffffffff1673ffffffffffffffffffffffffffffffffffffffff1673ffffffffffffffffffffffffffffffffffffffff16815260200160018201548152602001600282015481526020016003820154815250509050600060078a8a604051610e3f929190611ee6565b9081526020016040518091039020549050816000015182602001518360400151846060015185608001518597509750975097509750975050509295509295509295565b600260009054906101000a900473ffffffffffffffffffffffffffffffffffffffff1681565b6006602052806000526040600020600091509050806000018054610ecb9061225c565b80601f0160208091040260200160405190810160405280929190818152602001828054610ef79061225c565b8015610f445780601f10610f1957610100808354040283529160200191610f44565b820191906000526020600020905b815481529060010190602001808311610f2757829003601f168201915b5050505050908060010160009054906101000a900473ffffffffffffffffffffffffffffffffffffffff16908060010160149054906101000a900460ff16905083565b600560049054906101000a900461ffff1681565b610fa3610faf565b610fac81611455565b50565b60008054906101000a900473ffffffffffffffffffffffffffffffffffffffff1673ffffffffffffffffffffffffffffffffffffffff163373ffffffffffffffffffffffffffffffffffffffff161461103d576040517f08c379a000000000000000000000000000000000000000000000000000000000815260040161103490612619565b60405180910390fd5b565b60607f92fd13387c7fe7befbc38d303d6468778fb9731bc4583f17d92989c6fcfdeaaa826040516024016110739190612664565b604051602081830303815290604052907bffffffffffffffffffffffffffffffffffffffffffffffffffffffff19166020820180517bffffffffffffffffffffffffffffffffffffffffffffffffffffffff83818316178352505050509050919050565b6000600660008581526020019081526020016000206040518060600160405290816000820180546111079061225c565b80601f01602080910402602001604051908101604052809291908181526020018280546111339061225c565b80156111805780601f1061115557610100808354040283529160200191611180565b820191906000526020600020905b81548152906001019060200180831161116357829003601f168201915b505050505081526020016001820160009054906101000a900473ffffffffffffffffffffffffffffffffffffffff1673ffffffffffffffffffffffffffffffffffffffff1673ffffffffffffffffffffffffffffffffffffffff1681526020016001820160149054906101000a900460ff16151515158152505090508060400151611240576040517f08c379a0000000000000000000000000000000000000000000000000000000008152600401611237906126cb565b60405180910390fd5b600080848490501161125357600061126f565b83836000818110611267576112666126eb565b5b905060200201355b9050600060016005836112829190612749565b61128c91906127a9565b90506040518060a00160405280600115158152602001846020015173ffffffffffffffffffffffffffffffffffffffff16815260200182815260200183815260200142815250600884600001516040516112e6919061280e565b908152602001604051809103902060008201518160000160006101000a81548160ff02191690831515021790555060208201518160000160016101000a81548173ffffffffffffffffffffffffffffffffffffffff021916908373ffffffffffffffffffffffffffffffffffffffff16021790555060408201518160010155606082015181600201556080820151816003015590505060066000878152602001908152602001600020600080820160006113a09190611581565b6001820160006101000a81549073ffffffffffffffffffffffffffffffffffffffff02191690556001820160146101000a81549060ff02191690555050826020015173ffffffffffffffffffffffffffffffffffffffff16836000015160405161140a919061280e565b60405180910390207f0369e6cbd91e8f226d4de16bfd9dfbecc8c2c72fd6044d4bdb9bb7ea542e3d1f83854260405161144593929190612825565b60405180910390a3505050505050565b3373ffffffffffffffffffffffffffffffffffffffff168173ffffffffffffffffffffffffffffffffffffffff16036114c3576040517f08c379a00000000000000000000000000000000000000000000000000000000081526004016114ba906128a8565b60405180910390fd5b80600160006101000a81548173ffffffffffffffffffffffffffffffffffffffff021916908373ffffffffffffffffffffffffffffffffffffffff1602179055508073ffffffffffffffffffffffffffffffffffffffff1660008054906101000a900473ffffffffffffffffffffffffffffffffffffffff1673ffffffffffffffffffffffffffffffffffffffff167fed8889f560326eb138920d842192f0eb3dd22b4f139c87a2c57538e05bae127860405160405180910390a350565b50805461158d9061225c565b6000825580601f1061159f57506115be565b601f0160209004906000526020600020908101906115bd91906115c1565b5b50565b5b808211156115da5760008160009055506001016115c2565b5090565b6000819050919050565b6115f1816115de565b82525050565b600060208201905061160c60008301846115e8565b92915050565b6000604051905090565b600080fd5b600080fd5b600080fd5b600080fd5b600080fd5b60008083601f84011261164b5761164a611626565b5b8235905067ffffffffffffffff8111156116685761166761162b565b5b60208301915083600182028301111561168457611683611630565b5b9250929050565b600073ffffffffffffffffffffffffffffffffffffffff82169050919050565b60006116b68261168b565b9050919050565b6116c6816116ab565b81146116d157600080fd5b50565b6000813590506116e3816116bd565b92915050565b6000806000604084860312156117025761170161161c565b5b600084013567ffffffffffffffff8111156117205761171f611621565b5b61172c86828701611635565b9350935050602061173f868287016116d4565b9150509250925092565b611752816115de565b811461175d57600080fd5b50565b60008135905061176f81611749565b92915050565b60008083601f84011261178b5761178a611626565b5b8235905067ffffffffffffffff8111156117a8576117a761162b565b5b6020830191508360208202830111156117c4576117c3611630565b5b9250929050565b6000806000604084860312156117e4576117e361161c565b5b60006117f286828701611760565b935050602084013567ffffffffffffffff81111561181357611812611621565b5b61181f86828701611775565b92509250509250925092565b600063ffffffff82169050919050565b6118448161182b565b82525050565b600060208201905061185f600083018461183b565b92915050565b600080fd5b6000601f19601f8301169050919050565b7f4e487b7100000000000000000000000000000000000000000000000000000000600052604160045260246000fd5b6118b38261186a565b810181811067ffffffffffffffff821117156118d2576118d161187b565b5b80604052505050565b60006118e5611612565b90506118f182826118aa565b919050565b600067ffffffffffffffff8211156119115761191061187b565b5b61191a8261186a565b9050602081019050919050565b82818337600083830152505050565b6000611949611944846118f6565b6118db565b90508281526020810184848401111561196557611964611865565b5b611970848285611927565b509392505050565b600082601f83011261198d5761198c611626565b5b813561199d848260208601611936565b91505092915050565b6000602082840312156119bc576119bb61161c565b5b600082013567ffffffffffffffff8111156119da576119d9611621565b5b6119e684828501611978565b91505092915050565b6000819050919050565b611a02816119ef565b8114611a0d57600080fd5b50565b600081359050611a1f816119f9565b92915050565b611a2e8161182b565b8114611a3957600080fd5b50565b600081359050611a4b81611a25565b92915050565b600061ffff82169050919050565b611a6881611a51565b8114611a7357600080fd5b50565b600081359050611a8581611a5f565b92915050565b600080600080600060a08688031215611aa757611aa661161c565b5b6000611ab588828901611760565b9550506020611ac688828901611a10565b9450506040611ad788828901611a3c565b9350506060611ae888828901611a76565b9250506080611af988828901611a3c565b9150509295509295909350565b611b0f816119ef565b82525050565b6000602082019050611b2a6000830184611b06565b92915050565b611b39816116ab565b82525050565b6000602082019050611b546000830184611b30565b92915050565b600060208284031215611b7057611b6f61161c565b5b6000611b7e848285016116d4565b91505092915050565b60008060208385031215611b9e57611b9d61161c565b5b600083013567ffffffffffffffff811115611bbc57611bbb611621565b5b611bc885828601611635565b92509250509250929050565b60008115159050919050565b611be981611bd4565b82525050565b600060c082019050611c046000830189611be0565b611c116020830188611b30565b611c1e60408301876115e8565b611c2b60608301866115e8565b611c3860808301856115e8565b611c4560a08301846115e8565b979650505050505050565b6000819050919050565b6000611c75611c70611c6b8461168b565b611c50565b61168b565b9050919050565b6000611c8782611c5a565b9050919050565b6000611c9982611c7c565b9050919050565b611ca981611c8e565b82525050565b6000602082019050611cc46000830184611ca0565b92915050565b600060208284031215611ce057611cdf61161c565b5b6000611cee84828501611760565b91505092915050565b600081519050919050565b600082825260208201905092915050565b60005b83811015611d31578082015181840152602081019050611d16565b60008484015250505050565b6000611d4882611cf7565b611d528185611d02565b9350611d62818560208601611d13565b611d6b8161186a565b840191505092915050565b60006060820190508181036000830152611d908186611d3d565b9050611d9f6020830185611b30565b611dac6040830184611be0565b949350505050565b611dbd81611a51565b82525050565b6000602082019050611dd86000830184611db4565b92915050565b7f6d61746368496420726571756972656400000000000000000000000000000000600082015250565b6000611e14601083611d02565b9150611e1f82611dde565b602082019050919050565b60006020820190508181036000830152611e4381611e07565b9050919050565b7f77696e6e65722072657175697265640000000000000000000000000000000000600082015250565b6000611e80600f83611d02565b9150611e8b82611e4a565b602082019050919050565b60006020820190508181036000830152611eaf81611e73565b9050919050565b600081905092915050565b6000611ecd8385611eb6565b9350611eda838584611927565b82840190509392505050565b6000611ef3828486611ec1565b91508190509392505050565b7f4c6f6f7420616c72656164792072657175657374656400000000000000000000600082015250565b6000611f35601683611d02565b9150611f4082611eff565b602082019050919050565b60006020820190508181036000830152611f6481611f28565b9050919050565b7f565246207375624964206e6f7420736574000000000000000000000000000000600082015250565b6000611fa1601183611d02565b9150611fac82611f6b565b602082019050919050565b60006020820190508181036000830152611fd081611f94565b9050919050565b7f565246206b657948617368206e6f742073657400000000000000000000000000600082015250565b600061200d601383611d02565b915061201882611fd7565b602082019050919050565b6000602082019050818103600083015261203c81612000565b9050919050565b7f436f6f7264696e61746f72206e6f742073657400000000000000000000000000600082015250565b6000612079601383611d02565b915061208482612043565b602082019050919050565b600060208201905081810360008301526120a88161206c565b9050919050565b6120b8816119ef565b82525050565b6120c7816115de565b82525050565b6120d681611a51565b82525050565b6120e58161182b565b82525050565b600081519050919050565b600082825260208201905092915050565b6000612112826120eb565b61211c81856120f6565b935061212c818560208601611d13565b6121358161186a565b840191505092915050565b600060c08301600083015161215860008601826120af565b50602083015161216b60208601826120be565b50604083015161217e60408601826120cd565b50606083015161219160608601826120dc565b5060808301516121a460808601826120dc565b5060a083015184820360a08601526121bc8282612107565b9150508091505092915050565b600060208201905081810360008301526121e38184612140565b905092915050565b6000815190506121fa81611749565b92915050565b6000602082840312156122165761221561161c565b5b6000612224848285016121eb565b91505092915050565b7f4e487b7100000000000000000000000000000000000000000000000000000000600052602260045260246000fd5b6000600282049050600182168061227457607f821691505b6020821081036122875761228661222d565b5b50919050565b60008190508160005260206000209050919050565b60006020601f8301049050919050565b600082821b905092915050565b6000600883026122ef7fffffffffffffffffffffffffffffffffffffffffffffffffffffffffffffffff826122b2565b6122f986836122b2565b95508019841693508086168417925050509392505050565b600061232c612327612322846115de565b611c50565b6115de565b9050919050565b6000819050919050565b61234683612311565b61235a61235282612333565b8484546122bf565b825550505050565b600090565b61236f612362565b61237a81848461233d565b505050565b5b8181101561239e57612393600082612367565b600181019050612380565b5050565b601f8211156123e3576123b48161228d565b6123bd846122a2565b810160208510156123cc578190505b6123e06123d8856122a2565b83018261237f565b50505b505050565b600082821c905092915050565b6000612406600019846008026123e8565b1980831691505092915050565b600061241f83836123f5565b9150826002028217905092915050565b61243882611cf7565b67ffffffffffffffff8111156124515761245061187b565b5b61245b825461225c565b6124668282856123a2565b600060209050601f8311600181146124995760008415612487578287015190505b6124918582612413565b8655506124f9565b601f1984166124a78661228d565b60005b828110156124cf578489015182556001820191506020850194506020810190506124aa565b868310156124ec57848901516124e8601f8916826123f5565b8355505b6001600288020188555050505b505050505050565b60006040820190506125166000830185611b30565b6125236020830184611b30565b9392505050565b7f4d7573742062652070726f706f736564206f776e657200000000000000000000600082015250565b6000612560601683611d02565b915061256b8261252a565b602082019050919050565b6000602082019050818103600083015261258f81612553565b9050919050565b60006060820190506125ab6000830186611b30565b6125b86020830185611b30565b6125c56040830184611b30565b949350505050565b7f4f6e6c792063616c6c61626c65206279206f776e657200000000000000000000600082015250565b6000612603601683611d02565b915061260e826125cd565b602082019050919050565b60006020820190508181036000830152612632816125f6565b9050919050565b61264281611bd4565b82525050565b60208201600082015161265e6000850182612639565b50505050565b60006020820190506126796000830184612648565b92915050565b7f556e6b6e6f776e20726571756573740000000000000000000000000000000000600082015250565b60006126b5600f83611d02565b91506126c08261267f565b602082019050919050565b600060208201905081810360008301526126e4816126a8565b9050919050565b7f4e487b7100000000000000000000000000000000000000000000000000000000600052603260045260246000fd5b7f4e487b7100000000000000000000000000000000000000000000000000000000600052601260045260246000fd5b6000612754826115de565b915061275f836115de565b92508261276f5761276e61271a565b5b828206905092915050565b7f4e487b7100000000000000000000000000000000000000000000000000000000600052601160045260246000fd5b60006127b4826115de565b91506127bf836115de565b92508282019050808211156127d7576127d661277a565b5b92915050565b60006127e882611cf7565b6127f28185611eb6565b9350612802818560208601611d13565b80840191505092915050565b600061281a82846127dd565b915081905092915050565b600060608201905061283a60008301866115e8565b61284760208301856115e8565b61285460408301846115e8565b949350505050565b7f43616e6e6f74207472616e7366657220746f2073656c66000000000000000000600082015250565b6000612892601783611d02565b915061289d8261285c565b602082019050919050565b600060208201905081810360008301526128c181612885565b905091905056fea26469706673582212207d1a90dbf7f827225e47e322a4c71ceec8f0bfe8671db2664e92d1d9714f53cf64736f6c63430008140033","opcodes":"PUSH1 0x80 PUSH1 0x40 MSTORE CALLVALUE DUP1 ISZERO PUSH3 0x11 JUMPI PUSH1 0x0 DUP1 REVERT JUMPDEST POP PUSH1 0x40 MLOAD PUSH3 0x306B CODESIZE SUB DUP1 PUSH3 0x306B DUP4 CODECOPY DUP2 DUP2 ADD PUSH1 0x40 MSTORE DUP2 ADD SWAP1 PUSH3 0x37 SWAP2 SWAP1 PUSH3 0x55A JUMP JUMPDEST DUP6 CALLER DUP1 PUSH1 0x0 DUP1 PUSH20 0xFFFFFFFFFFFFFFFFFFFFFFFFFFFFFFFFFFFFFFFF AND DUP3 PUSH20 0xFFFFFFFFFFFFFFFFFFFFFFFFFFFFFFFFFFFFFFFF AND SUB PUSH3 0xAD JUMPI PUSH1 0x40 MLOAD PUSH32 0x8C379A000000000000000000000000000000000000000000000000000000000 DUP2 MSTORE PUSH1 0x4 ADD PUSH3 0xA4 SWAP1 PUSH3 0x657 JUMP JUMPDEST PUSH1 0x40 MLOAD DUP1 SWAP2 SUB SWAP1 REVERT JUMPDEST DUP2 PUSH1 0x0 DUP1 PUSH2 0x100 EXP DUP2 SLOAD DUP2 PUSH20 0xFFFFFFFFFFFFFFFFFFFFFFFFFFFFFFFFFFFFFFFF MUL NOT AND SWAP1 DUP4 PUSH20 0xFFFFFFFFFFFFFFFFFFFFFFFFFFFFFFFFFFFFFFFF AND MUL OR SWAP1 SSTORE POP PUSH1 0x0 PUSH20 0xFFFFFFFFFFFFFFFFFFFFFFFFFFFFFFFFFFFFFFFF AND DUP2 PUSH20 0xFFFFFFFFFFFFFFFFFFFFFFFFFFFFFFFFFFFFFFFF AND EQ PUSH3 0x134 JUMPI PUSH3 0x133 DUP2 PUSH3 0x2CB PUSH1 0x20 SHL PUSH1 0x20 SHR JUMP JUMPDEST JUMPDEST POP POP POP PUSH1 0x0 PUSH20 0xFFFFFFFFFFFFFFFFFFFFFFFFFFFFFFFFFFFFFFFF AND DUP2 PUSH20 0xFFFFFFFFFFFFFFFFFFFFFFFFFFFFFFFFFFFFFFFF AND SUB PUSH3 0x19E JUMPI PUSH1 0x40 MLOAD PUSH32 0xD92E233D00000000000000000000000000000000000000000000000000000000 DUP2 MSTORE PUSH1 0x4 ADD PUSH1 0x40 MLOAD DUP1 SWAP2 SUB SWAP1 REVERT JUMPDEST DUP1 PUSH1 0x2 PUSH1 0x0 PUSH2 0x100 EXP DUP2 SLOAD DUP2 PUSH20 0xFFFFFFFFFFFFFFFFFFFFFFFFFFFFFFFFFFFFFFFF MUL NOT AND SWAP1 DUP4 PUSH20 0xFFFFFFFFFFFFFFFFFFFFFFFFFFFFFFFFFFFFFFFF AND MUL OR SWAP1 SSTORE POP POP PUSH1 0x0 PUSH20 0xFFFFFFFFFFFFFFFFFFFFFFFFFFFFFFFFFFFFFFFF AND DUP7 PUSH20 0xFFFFFFFFFFFFFFFFFFFFFFFFFFFFFFFFFFFFFFFF AND SUB PUSH3 0x252 JUMPI PUSH1 0x40 MLOAD PUSH32 0x8C379A000000000000000000000000000000000000000000000000000000000 DUP2 MSTORE PUSH1 0x4 ADD PUSH3 0x249 SWAP1 PUSH3 0x6C9 JUMP JUMPDEST PUSH1 0x40 MLOAD DUP1 SWAP2 SUB SWAP1 REVERT JUMPDEST DUP5 PUSH1 0x3 DUP2 SWAP1 SSTORE POP DUP4 PUSH1 0x4 DUP2 SWAP1 SSTORE POP DUP3 PUSH1 0x5 PUSH1 0x0 PUSH2 0x100 EXP DUP2 SLOAD DUP2 PUSH4 0xFFFFFFFF MUL NOT AND SWAP1 DUP4 PUSH4 0xFFFFFFFF AND MUL OR SWAP1 SSTORE POP DUP2 PUSH1 0x5 PUSH1 0x4 PUSH2 0x100 EXP DUP2 SLOAD DUP2 PUSH2 0xFFFF MUL NOT AND SWAP1 DUP4 PUSH2 0xFFFF AND MUL OR SWAP1 SSTORE POP DUP1 PUSH1 0x5 PUSH1 0x6 PUSH2 0x100 EXP DUP2 SLOAD DUP2 PUSH4 0xFFFFFFFF MUL NOT AND SWAP1 DUP4 PUSH4 0xFFFFFFFF AND MUL OR SWAP1 SSTORE POP POP POP POP POP POP POP PUSH3 0x75D JUMP JUMPDEST CALLER PUSH20 0xFFFFFFFFFFFFFFFFFFFFFFFFFFFFFFFFFFFFFFFF AND DUP2 PUSH20 0xFFFFFFFFFFFFFFFFFFFFFFFFFFFFFFFFFFFFFFFF AND SUB PUSH3 0x33C JUMPI PUSH1 0x40 MLOAD PUSH32 0x8C379A000000000000000000000000000000000000000000000000000000000 DUP2 MSTORE PUSH1 0x4 ADD PUSH3 0x333 SWAP1 PUSH3 0x73B JUMP JUMPDEST PUSH1 0x40 MLOAD DUP1 SWAP2 SUB SWAP1 REVERT JUMPDEST DUP1 PUSH1 0x1 PUSH1 0x0 PUSH2 0x100 EXP DUP2 SLOAD DUP2 PUSH20 0xFFFFFFFFFFFFFFFFFFFFFFFFFFFFFFFFFFFFFFFF MUL NOT AND SWAP1 DUP4 PUSH20 0xFFFFFFFFFFFFFFFFFFFFFFFFFFFFFFFFFFFFFFFF AND MUL OR SWAP1 SSTORE POP DUP1 PUSH20 0xFFFFFFFFFFFFFFFFFFFFFFFFFFFFFFFFFFFFFFFF AND PUSH1 0x0 DUP1 SLOAD SWAP1 PUSH2 0x100 EXP SWAP1 DIV PUSH20 0xFFFFFFFFFFFFFFFFFFFFFFFFFFFFFFFFFFFFFFFF AND PUSH20 0xFFFFFFFFFFFFFFFFFFFFFFFFFFFFFFFFFFFFFFFF AND PUSH32 0xED8889F560326EB138920D842192F0EB3DD22B4F139C87A2C57538E05BAE1278 PUSH1 0x40 MLOAD PUSH1 0x40 MLOAD DUP1 SWAP2 SUB SWAP1 LOG3 POP JUMP JUMPDEST PUSH1 0x0 DUP1 REVERT JUMPDEST PUSH1 0x0 PUSH20 0xFFFFFFFFFFFFFFFFFFFFFFFFFFFFFFFFFFFFFFFF DUP3 AND SWAP1 POP SWAP2 SWAP1 POP JUMP JUMPDEST PUSH1 0x0 PUSH3 0x42C DUP3 PUSH3 0x3FF JUMP JUMPDEST SWAP1 POP SWAP2 SWAP1 POP JUMP JUMPDEST PUSH3 0x43E DUP2 PUSH3 0x41F JUMP JUMPDEST DUP2 EQ PUSH3 0x44A JUMPI PUSH1 0x0 DUP1 REVERT JUMPDEST POP JUMP JUMPDEST PUSH1 0x0 DUP2 MLOAD SWAP1 POP PUSH3 0x45E DUP2 PUSH3 0x433 JUMP JUMPDEST SWAP3 SWAP2 POP POP JUMP JUMPDEST PUSH1 0x0 DUP2 SWAP1 POP SWAP2 SWAP1 POP JUMP JUMPDEST PUSH3 0x479 DUP2 PUSH3 0x464 JUMP JUMPDEST DUP2 EQ PUSH3 0x485 JUMPI PUSH1 0x0 DUP1 REVERT JUMPDEST POP JUMP JUMPDEST PUSH1 0x0 DUP2 MLOAD SWAP1 POP PUSH3 0x499 DUP2 PUSH3 0x46E JUMP JUMPDEST SWAP3 SWAP2 POP POP JUMP JUMPDEST PUSH1 0x0 DUP2 SWAP1 POP SWAP2 SWAP1 POP JUMP JUMPDEST PUSH3 0x4B4 DUP2 PUSH3 0x49F JUMP JUMPDEST DUP2 EQ PUSH3 0x4C0 JUMPI PUSH1 0x0 DUP1 REVERT JUMPDEST POP JUMP JUMPDEST PUSH1 0x0 DUP2 MLOAD SWAP1 POP PUSH3 0x4D4 DUP2 PUSH3 0x4A9 JUMP JUMPDEST SWAP3 SWAP2 POP POP JUMP JUMPDEST PUSH1 0x0 PUSH4 0xFFFFFFFF DUP3 AND SWAP1 POP SWAP2 SWAP1 POP JUMP JUMPDEST PUSH3 0x4F5 DUP2 PUSH3 0x4DA JUMP JUMPDEST DUP2 EQ PUSH3 0x501 JUMPI PUSH1 0x0 DUP1 REVERT JUMPDEST POP JUMP JUMPDEST PUSH1 0x0 DUP2 MLOAD SWAP1 POP PUSH3 0x515 DUP2 PUSH3 0x4EA JUMP JUMPDEST SWAP3 SWAP2 POP POP JUMP JUMPDEST PUSH1 0x0 PUSH2 0xFFFF DUP3 AND SWAP1 POP SWAP2 SWAP1 POP JUMP JUMPDEST PUSH3 0x534 DUP2 PUSH3 0x51B JUMP JUMPDEST DUP2 EQ PUSH3 0x540 JUMPI PUSH1 0x0 DUP1 REVERT JUMPDEST POP JUMP JUMPDEST PUSH1 0x0 DUP2 MLOAD SWAP1 POP PUSH3 0x554 DUP2 PUSH3 0x529 JUMP JUMPDEST SWAP3 SWAP2 POP POP JUMP JUMPDEST PUSH1 0x0 DUP1 PUSH1 0x0 DUP1 PUSH1 0x0 DUP1 PUSH1 0xC0 DUP8 DUP10 SUB SLT ISZERO PUSH3 0x57A JUMPI PUSH3 0x579 PUSH3 0x3FA JUMP JUMPDEST JUMPDEST PUSH1 0x0 PUSH3 0x58A DUP10 DUP3 DUP11 ADD PUSH3 0x44D JUMP JUMPDEST SWAP7 POP POP PUSH1 0x20 PUSH3 0x59D DUP10 DUP3 DUP11 ADD PUSH3 0x488 JUMP JUMPDEST SWAP6 POP POP PUSH1 0x40 PUSH3 0x5B0 DUP10 DUP3 DUP11 ADD PUSH3 0x4C3 JUMP JUMPDEST SWAP5 POP POP PUSH1 0x60 PUSH3 0x5C3 DUP10 DUP3 DUP11 ADD PUSH3 0x504 JUMP JUMPDEST SWAP4 POP POP PUSH1 0x80 PUSH3 0x5D6 DUP10 DUP3 DUP11 ADD PUSH3 0x543 JUMP JUMPDEST SWAP3 POP POP PUSH1 0xA0 PUSH3 0x5E9 DUP10 DUP3 DUP11 ADD PUSH3 0x504 JUMP JUMPDEST SWAP2 POP POP SWAP3 SWAP6 POP SWAP3 SWAP6 POP SWAP3 SWAP6 JUMP JUMPDEST PUSH1 0x0 DUP3 DUP3 MSTORE PUSH1 0x20 DUP3 ADD SWAP1 POP SWAP3 SWAP2 POP POP JUMP JUMPDEST PUSH32 0x43616E6E6F7420736574206F776E657220746F207A65726F0000000000000000 PUSH1 0x0 DUP3 ADD MSTORE POP JUMP JUMPDEST PUSH1 0x0 PUSH3 0x63F PUSH1 0x18 DUP4 PUSH3 0x5F6 JUMP JUMPDEST SWAP2 POP PUSH3 0x64C DUP3 PUSH3 0x607 JUMP JUMPDEST PUSH1 0x20 DUP3 ADD SWAP1 POP SWAP2 SWAP1 POP JUMP JUMPDEST PUSH1 0x0 PUSH1 0x20 DUP3 ADD SWAP1 POP DUP2 DUP2 SUB PUSH1 0x0 DUP4 ADD MSTORE PUSH3 0x672 DUP2 PUSH3 0x630 JUMP JUMPDEST SWAP1 POP SWAP2 SWAP1 POP JUMP JUMPDEST PUSH32 0x496E76616C696420636F6F7264696E61746F7200000000000000000000000000 PUSH1 0x0 DUP3 ADD MSTORE POP JUMP JUMPDEST PUSH1 0x0 PUSH3 0x6B1 PUSH1 0x13 DUP4 PUSH3 0x5F6 JUMP JUMPDEST SWAP2 POP PUSH3 0x6BE DUP3 PUSH3 0x679 JUMP JUMPDEST PUSH1 0x20 DUP3 ADD SWAP1 POP SWAP2 SWAP1 POP JUMP JUMPDEST PUSH1 0x0 PUSH1 0x20 DUP3 ADD SWAP1 POP DUP2 DUP2 SUB PUSH1 0x0 DUP4 ADD MSTORE PUSH3 0x6E4 DUP2 PUSH3 0x6A2 JUMP JUMPDEST SWAP1 POP SWAP2 SWAP1 POP JUMP JUMPDEST PUSH32 0x43616E6E6F74207472616E7366657220746F2073656C66000000000000000000 PUSH1 0x0 DUP3 ADD MSTORE POP JUMP JUMPDEST PUSH1 0x0 PUSH3 0x723 PUSH1 0x17 DUP4 PUSH3 0x5F6 JUMP JUMPDEST SWAP2 POP PUSH3 0x730 DUP3 PUSH3 0x6EB JUMP JUMPDEST PUSH1 0x20 DUP3 ADD SWAP1 POP SWAP2 SWAP1 POP JUMP JUMPDEST PUSH1 0x0 PUSH1 0x20 DUP3 ADD SWAP1 POP DUP2 DUP2 SUB PUSH1 0x0 DUP4 ADD MSTORE PUSH3 0x756 DUP2 PUSH3 0x714 JUMP JUMPDEST SWAP1 POP SWAP2 SWAP1 POP JUMP JUMPDEST PUSH2 0x28FE DUP1 PUSH3 0x76D PUSH1 0x0 CODECOPY PUSH1 0x0 RETURN INVALID PUSH1 0x80 PUSH1 0x40 MSTORE CALLVALUE DUP1 ISZERO PUSH2 0x10 JUMPI PUSH1 0x0 DUP1 REVERT JUMPDEST POP PUSH1 0x4 CALLDATASIZE LT PUSH2 0x100 JUMPI PUSH1 0x0 CALLDATALOAD PUSH1 0xE0 SHR DUP1 PUSH4 0x7CCFD7FC GT PUSH2 0x97 JUMPI DUP1 PUSH4 0x9ECCACF6 GT PUSH2 0x66 JUMPI DUP1 PUSH4 0x9ECCACF6 EQ PUSH2 0x28E JUMPI DUP1 PUSH4 0xAF6E6238 EQ PUSH2 0x2AC JUMPI DUP1 PUSH4 0xB0FB162F EQ PUSH2 0x2DE JUMPI DUP1 PUSH4 0xF2FDE38B EQ PUSH2 0x2FC JUMPI PUSH2 0x100 JUMP JUMPDEST DUP1 PUSH4 0x7CCFD7FC EQ PUSH2 0x201 JUMPI DUP1 PUSH4 0x8DA5CB5B EQ PUSH2 0x21F JUMPI DUP1 PUSH4 0x8EA98117 EQ PUSH2 0x23D JUMPI DUP1 PUSH4 0x91A52089 EQ PUSH2 0x259 JUMPI PUSH2 0x100 JUMP JUMPDEST DUP1 PUSH4 0x3EED3F94 GT PUSH2 0xD3 JUMPI DUP1 PUSH4 0x3EED3F94 EQ PUSH2 0x18D JUMPI DUP1 PUSH4 0x58EA9F7A EQ PUSH2 0x1BD JUMPI DUP1 PUSH4 0x61728F39 EQ PUSH2 0x1D9 JUMPI DUP1 PUSH4 0x79BA5097 EQ PUSH2 0x1F7 JUMPI PUSH2 0x100 JUMP JUMPDEST DUP1 PUSH4 0x9C1BA2E EQ PUSH2 0x105 JUMPI DUP1 PUSH4 0xA051118 EQ PUSH2 0x123 JUMPI DUP1 PUSH4 0x1FE543E3 EQ PUSH2 0x153 JUMPI DUP1 PUSH4 0x24F74697 EQ PUSH2 0x16F JUMPI JUMPDEST PUSH1 0x0 DUP1 REVERT JUMPDEST PUSH2 0x10D PUSH2 0x318 JUMP JUMPDEST PUSH1 0x40 MLOAD PUSH2 0x11A SWAP2 SWAP1 PUSH2 0x15F7 JUMP JUMPDEST PUSH1 0x40 MLOAD DUP1 SWAP2 SUB SWAP1 RETURN JUMPDEST PUSH2 0x13D PUSH1 0x4 DUP1 CALLDATASIZE SUB DUP2 ADD SWAP1 PUSH2 0x138 SWAP2 SWAP1 PUSH2 0x16E9 JUMP JUMPDEST PUSH2 0x31E JUMP JUMPDEST PUSH1 0x40 MLOAD PUSH2 0x14A SWAP2 SWAP1 PUSH2 0x15F7 JUMP JUMPDEST PUSH1 0x40 MLOAD DUP1 SWAP2 SUB SWAP1 RETURN JUMPDEST PUSH2 0x16D PUSH1 0x4 DUP1 CALLDATASIZE SUB DUP2 ADD SWAP1 PUSH2 0x168 SWAP2 SWAP1 PUSH2 0x17CB JUMP JUMPDEST PUSH2 0x823 JUMP JUMPDEST STOP JUMPDEST PUSH2 0x177 PUSH2 0x8E9 JUMP JUMPDEST PUSH1 0x40 MLOAD PUSH2 0x184 SWAP2 SWAP1 PUSH2 0x184A JUMP JUMPDEST PUSH1 0x40 MLOAD DUP1 SWAP2 SUB SWAP1 RETURN JUMPDEST PUSH2 0x1A7 PUSH1 0x4 DUP1 CALLDATASIZE SUB DUP2 ADD SWAP1 PUSH2 0x1A2 SWAP2 SWAP1 PUSH2 0x19A6 JUMP JUMPDEST PUSH2 0x8FF JUMP JUMPDEST PUSH1 0x40 MLOAD PUSH2 0x1B4 SWAP2 SWAP1 PUSH2 0x15F7 JUMP JUMPDEST PUSH1 0x40 MLOAD DUP1 SWAP2 SUB SWAP1 RETURN JUMPDEST PUSH2 0x1D7 PUSH1 0x4 DUP1 CALLDATASIZE SUB DUP2 ADD SWAP1 PUSH2 0x1D2 SWAP2 SWAP1 PUSH2 0x1A8B JUMP JUMPDEST PUSH2 0x92D JUMP JUMPDEST STOP JUMPDEST PUSH2 0x1E1 PUSH2 0x9A9 JUMP JUMPDEST PUSH1 0x40 MLOAD PUSH2 0x1EE SWAP2 SWAP1 PUSH2 0x1B15 JUMP JUMPDEST PUSH1 0x40 MLOAD DUP1 SWAP2 SUB SWAP1 RETURN JUMPDEST PUSH2 0x1FF PUSH2 0x9AF JUMP JUMPDEST STOP JUMPDEST PUSH2 0x209 PUSH2 0xB44 JUMP JUMPDEST PUSH1 0x40 MLOAD PUSH2 0x216 SWAP2 SWAP1 PUSH2 0x184A JUMP JUMPDEST PUSH1 0x40 MLOAD DUP1 SWAP2 SUB SWAP1 RETURN JUMPDEST PUSH2 0x227 PUSH2 0xB5A JUMP JUMPDEST PUSH1 0x40 MLOAD PUSH2 0x234 SWAP2 SWAP1 PUSH2 0x1B3F JUMP JUMPDEST PUSH1 0x40 MLOAD DUP1 SWAP2 SUB SWAP1 RETURN JUMPDEST PUSH2 0x257 PUSH1 0x4 DUP1 CALLDATASIZE SUB DUP2 ADD SWAP1 PUSH2 0x252 SWAP2 SWAP1 PUSH2 0x1B5A JUMP JUMPDEST PUSH2 0xB83 JUMP JUMPDEST STOP JUMPDEST PUSH2 0x273 PUSH1 0x4 DUP1 CALLDATASIZE SUB DUP2 ADD SWAP1 PUSH2 0x26E SWAP2 SWAP1 PUSH2 0x1B87 JUMP JUMPDEST PUSH2 0xD64 JUMP JUMPDEST PUSH1 0x40 MLOAD PUSH2 0x285 SWAP7 SWAP6 SWAP5 SWAP4 SWAP3 SWAP2 SWAP1 PUSH2 0x1BEF JUMP JUMPDEST PUSH1 0x40 MLOAD DUP1 SWAP2 SUB SWAP1 RETURN JUMPDEST PUSH2 0x296 PUSH2 0xE82 JUMP JUMPDEST PUSH1 0x40 MLOAD PUSH2 0x2A3 SWAP2 SWAP1 PUSH2 0x1CAF JUMP JUMPDEST PUSH1 0x40 MLOAD DUP1 SWAP2 SUB SWAP1 RETURN JUMPDEST PUSH2 0x2C6 PUSH1 0x4 DUP1 CALLDATASIZE SUB DUP2 ADD SWAP1 PUSH2 0x2C1 SWAP2 SWAP1 PUSH2 0x1CCA JUMP JUMPDEST PUSH2 0xEA8 JUMP JUMPDEST PUSH1 0x40 MLOAD PUSH2 0x2D5 SWAP4 SWAP3 SWAP2 SWAP1 PUSH2 0x1D76 JUMP JUMPDEST PUSH1 0x40 MLOAD DUP1 SWAP2 SUB SWAP1 RETURN JUMPDEST PUSH2 0x2E6 PUSH2 0xF87 JUMP JUMPDEST PUSH1 0x40 MLOAD PUSH2 0x2F3 SWAP2 SWAP1 PUSH2 0x1DC3 JUMP JUMPDEST PUSH1 0x40 MLOAD DUP1 SWAP2 SUB SWAP1 RETURN JUMPDEST PUSH2 0x316 PUSH1 0x4 DUP1 CALLDATASIZE SUB DUP2 ADD SWAP1 PUSH2 0x311 SWAP2 SWAP1 PUSH2 0x1B5A JUMP JUMPDEST PUSH2 0xF9B JUMP JUMPDEST STOP JUMPDEST PUSH1 0x3 SLOAD DUP2 JUMP JUMPDEST PUSH1 0x0 PUSH2 0x328 PUSH2 0xFAF JUMP JUMPDEST PUSH1 0x0 DUP5 DUP5 SWAP1 POP GT PUSH2 0x36E JUMPI PUSH1 0x40 MLOAD PUSH32 0x8C379A000000000000000000000000000000000000000000000000000000000 DUP2 MSTORE PUSH1 0x4 ADD PUSH2 0x365 SWAP1 PUSH2 0x1E2A JUMP JUMPDEST PUSH1 0x40 MLOAD DUP1 SWAP2 SUB SWAP1 REVERT JUMPDEST PUSH1 0x0 PUSH20 0xFFFFFFFFFFFFFFFFFFFFFFFFFFFFFFFFFFFFFFFF AND DUP3 PUSH20 0xFFFFFFFFFFFFFFFFFFFFFFFFFFFFFFFFFFFFFFFF AND SUB PUSH2 0x3DD JUMPI PUSH1 0x40 MLOAD PUSH32 0x8C379A000000000000000000000000000000000000000000000000000000000 DUP2 MSTORE PUSH1 0x4 ADD PUSH2 0x3D4 SWAP1 PUSH2 0x1E96 JUMP JUMPDEST PUSH1 0x40 MLOAD DUP1 SWAP2 SUB SWAP1 REVERT JUMPDEST PUSH1 0x0 PUSH1 0x7 DUP6 DUP6 PUSH1 0x40 MLOAD PUSH2 0x3F1 SWAP3 SWAP2 SWAP1 PUSH2 0x1EE6 JUMP JUMPDEST SWAP1 DUP2 MSTORE PUSH1 0x20 ADD PUSH1 0x40 MLOAD DUP1 SWAP2 SUB SWAP1 KECCAK256 SLOAD EQ PUSH2 0x440 JUMPI PUSH1 0x40 MLOAD PUSH32 0x8C379A000000000000000000000000000000000000000000000000000000000 DUP2 MSTORE PUSH1 0x4 ADD PUSH2 0x437 SWAP1 PUSH2 0x1F4B JUMP JUMPDEST PUSH1 0x40 MLOAD DUP1 SWAP2 SUB SWAP1 REVERT JUMPDEST PUSH1 0x0 PUSH1 0x3 SLOAD SUB PUSH2 0x485 JUMPI PUSH1 0x40 MLOAD PUSH32 0x8C379A000000000000000000000000000000000000000000000000000000000 DUP2 MSTORE PUSH1 0x4 ADD PUSH2 0x47C SWAP1 PUSH2 0x1FB7 JUMP JUMPDEST PUSH1 0x40 MLOAD DUP1 SWAP2 SUB SWAP1 REVERT JUMPDEST PUSH1 0x0 DUP1 SHL PUSH1 0x4 SLOAD SUB PUSH2 0x4CC JUMPI PUSH1 0x40 MLOAD PUSH32 0x8C379A000000000000000000000000000000000000000000000000000000000 DUP2 MSTORE PUSH1 0x4 ADD PUSH2 0x4C3 SWAP1 PUSH2 0x2023 JUMP JUMPDEST PUSH1 0x40 MLOAD DUP1 SWAP2 SUB SWAP1 REVERT JUMPDEST PUSH1 0x0 PUSH20 0xFFFFFFFFFFFFFFFFFFFFFFFFFFFFFFFFFFFFFFFF AND PUSH1 0x2 PUSH1 0x0 SWAP1 SLOAD SWAP1 PUSH2 0x100 EXP SWAP1 DIV PUSH20 0xFFFFFFFFFFFFFFFFFFFFFFFFFFFFFFFFFFFFFFFF AND PUSH20 0xFFFFFFFFFFFFFFFFFFFFFFFFFFFFFFFFFFFFFFFF AND SUB PUSH2 0x55D JUMPI PUSH1 0x40 MLOAD PUSH32 0x8C379A000000000000000000000000000000000000000000000000000000000 DUP2 MSTORE PUSH1 0x4 ADD PUSH2 0x554 SWAP1 PUSH2 0x208F JUMP JUMPDEST PUSH1 0x40 MLOAD DUP1 SWAP2 SUB SWAP1 REVERT JUMPDEST PUSH1 0x0 PUSH1 0x40 MLOAD DUP1 PUSH1 0xC0 ADD PUSH1 0x40 MSTORE DUP1 PUSH1 0x4 SLOAD DUP2 MSTORE PUSH1 0x20 ADD PUSH1 0x3 SLOAD DUP2 MSTORE PUSH1 0x20 ADD PUSH1 0x5 PUSH1 0x4 SWAP1 SLOAD SWAP1 PUSH2 0x100 EXP SWAP1 DIV PUSH2 0xFFFF AND PUSH2 0xFFFF AND DUP2 MSTORE PUSH1 0x20 ADD PUSH1 0x5 PUSH1 0x0 SWAP1 SLOAD SWAP1 PUSH2 0x100 EXP SWAP1 DIV PUSH4 0xFFFFFFFF AND PUSH4 0xFFFFFFFF AND DUP2 MSTORE PUSH1 0x20 ADD PUSH1 0x5 PUSH1 0x6 SWAP1 SLOAD SWAP1 PUSH2 0x100 EXP SWAP1 DIV PUSH4 0xFFFFFFFF AND PUSH4 0xFFFFFFFF AND DUP2 MSTORE PUSH1 0x20 ADD PUSH2 0x5EA PUSH1 0x40 MLOAD DUP1 PUSH1 0x20 ADD PUSH1 0x40 MSTORE DUP1 PUSH1 0x0 ISZERO ISZERO DUP2 MSTORE POP PUSH2 0x103F JUMP JUMPDEST DUP2 MSTORE POP SWAP1 POP PUSH1 0x2 PUSH1 0x0 SWAP1 SLOAD SWAP1 PUSH2 0x100 EXP SWAP1 DIV PUSH20 0xFFFFFFFFFFFFFFFFFFFFFFFFFFFFFFFFFFFFFFFF AND PUSH20 0xFFFFFFFFFFFFFFFFFFFFFFFFFFFFFFFFFFFFFFFF AND PUSH4 0x9B1C385E DUP3 PUSH1 0x40 MLOAD DUP3 PUSH4 0xFFFFFFFF AND PUSH1 0xE0 SHL DUP2 MSTORE PUSH1 0x4 ADD PUSH2 0x64A SWAP2 SWAP1 PUSH2 0x21C9 JUMP JUMPDEST PUSH1 0x20 PUSH1 0x40 MLOAD DUP1 DUP4 SUB DUP2 PUSH1 0x0 DUP8 GAS CALL ISZERO DUP1 ISZERO PUSH2 0x669 JUMPI RETURNDATASIZE PUSH1 0x0 DUP1 RETURNDATACOPY RETURNDATASIZE PUSH1 0x0 REVERT JUMPDEST POP POP POP POP PUSH1 0x40 MLOAD RETURNDATASIZE PUSH1 0x1F NOT PUSH1 0x1F DUP3 ADD AND DUP3 ADD DUP1 PUSH1 0x40 MSTORE POP DUP2 ADD SWAP1 PUSH2 0x68D SWAP2 SWAP1 PUSH2 0x2200 JUMP JUMPDEST SWAP2 POP PUSH1 0x40 MLOAD DUP1 PUSH1 0x60 ADD PUSH1 0x40 MSTORE DUP1 DUP7 DUP7 DUP1 DUP1 PUSH1 0x1F ADD PUSH1 0x20 DUP1 SWAP2 DIV MUL PUSH1 0x20 ADD PUSH1 0x40 MLOAD SWAP1 DUP2 ADD PUSH1 0x40 MSTORE DUP1 SWAP4 SWAP3 SWAP2 SWAP1 DUP2 DUP2 MSTORE PUSH1 0x20 ADD DUP4 DUP4 DUP1 DUP3 DUP5 CALLDATACOPY PUSH1 0x0 DUP2 DUP5 ADD MSTORE PUSH1 0x1F NOT PUSH1 0x1F DUP3 ADD AND SWAP1 POP DUP1 DUP4 ADD SWAP3 POP POP POP POP POP POP POP DUP2 MSTORE PUSH1 0x20 ADD DUP5 PUSH20 0xFFFFFFFFFFFFFFFFFFFFFFFFFFFFFFFFFFFFFFFF AND DUP2 MSTORE PUSH1 0x20 ADD PUSH1 0x1 ISZERO ISZERO DUP2 MSTORE POP PUSH1 0x6 PUSH1 0x0 DUP5 DUP2 MSTORE PUSH1 0x20 ADD SWAP1 DUP2 MSTORE PUSH1 0x20 ADD PUSH1 0x0 KECCAK256 PUSH1 0x0 DUP3 ADD MLOAD DUP2 PUSH1 0x0 ADD SWAP1 DUP2 PUSH2 0x72F SWAP2 SWAP1 PUSH2 0x242F JUMP JUMPDEST POP PUSH1 0x20 DUP3 ADD MLOAD DUP2 PUSH1 0x1 ADD PUSH1 0x0 PUSH2 0x100 EXP DUP2 SLOAD DUP2 PUSH20 0xFFFFFFFFFFFFFFFFFFFFFFFFFFFFFFFFFFFFFFFF MUL NOT AND SWAP1 DUP4 PUSH20 0xFFFFFFFFFFFFFFFFFFFFFFFFFFFFFFFFFFFFFFFF AND MUL OR SWAP1 SSTORE POP PUSH1 0x40 DUP3 ADD MLOAD DUP2 PUSH1 0x1 ADD PUSH1 0x14 PUSH2 0x100 EXP DUP2 SLOAD DUP2 PUSH1 0xFF MUL NOT AND SWAP1 DUP4 ISZERO ISZERO MUL OR SWAP1 SSTORE POP SWAP1 POP POP DUP2 PUSH1 0x7 DUP7 DUP7 PUSH1 0x40 MLOAD PUSH2 0x7AD SWAP3 SWAP2 SWAP1 PUSH2 0x1EE6 JUMP JUMPDEST SWAP1 DUP2 MSTORE PUSH1 0x20 ADD PUSH1 0x40 MLOAD DUP1 SWAP2 SUB SWAP1 KECCAK256 DUP2 SWAP1 SSTORE POP DUP3 PUSH20 0xFFFFFFFFFFFFFFFFFFFFFFFFFFFFFFFFFFFFFFFF AND DUP6 DUP6 PUSH1 0x40 MLOAD PUSH2 0x7E6 SWAP3 SWAP2 SWAP1 PUSH2 0x1EE6 JUMP JUMPDEST PUSH1 0x40 MLOAD DUP1 SWAP2 SUB SWAP1 KECCAK256 DUP4 PUSH32 0x515C51446E033867E77A65A00C6C344D76FA4A3375B158093A78F728AD9D0438 PUSH1 0x40 MLOAD PUSH1 0x40 MLOAD DUP1 SWAP2 SUB SWAP1 LOG4 POP SWAP4 SWAP3 POP POP POP JUMP JUMPDEST PUSH1 0x2 PUSH1 0x0 SWAP1 SLOAD SWAP1 PUSH2 0x100 EXP SWAP1 DIV PUSH20 0xFFFFFFFFFFFFFFFFFFFFFFFFFFFFFFFFFFFFFFFF AND PUSH20 0xFFFFFFFFFFFFFFFFFFFFFFFFFFFFFFFFFFFFFFFF AND CALLER PUSH20 0xFFFFFFFFFFFFFFFFFFFFFFFFFFFFFFFFFFFFFFFF AND EQ PUSH2 0x8D9 JUMPI CALLER PUSH1 0x2 PUSH1 0x0 SWAP1 SLOAD SWAP1 PUSH2 0x100 EXP SWAP1 DIV PUSH20 0xFFFFFFFFFFFFFFFFFFFFFFFFFFFFFFFFFFFFFFFF AND PUSH1 0x40 MLOAD PUSH32 0x1CF993F400000000000000000000000000000000000000000000000000000000 DUP2 MSTORE PUSH1 0x4 ADD PUSH2 0x8D0 SWAP3 SWAP2 SWAP1 PUSH2 0x2501 JUMP JUMPDEST PUSH1 0x40 MLOAD DUP1 SWAP2 SUB SWAP1 REVERT JUMPDEST PUSH2 0x8E4 DUP4 DUP4 DUP4 PUSH2 0x10D7 JUMP JUMPDEST POP POP POP JUMP JUMPDEST PUSH1 0x5 PUSH1 0x0 SWAP1 SLOAD SWAP1 PUSH2 0x100 EXP SWAP1 DIV PUSH4 0xFFFFFFFF AND DUP2 JUMP JUMPDEST PUSH1 0x7 DUP2 DUP1 MLOAD PUSH1 0x20 DUP2 ADD DUP3 ADD DUP1 MLOAD DUP5 DUP3 MSTORE PUSH1 0x20 DUP4 ADD PUSH1 0x20 DUP6 ADD KECCAK256 DUP2 DUP4 MSTORE DUP1 SWAP6 POP POP POP POP POP POP PUSH1 0x0 SWAP2 POP SWAP1 POP SLOAD DUP2 JUMP JUMPDEST PUSH2 0x935 PUSH2 0xFAF JUMP JUMPDEST DUP5 PUSH1 0x3 DUP2 SWAP1 SSTORE POP DUP4 PUSH1 0x4 DUP2 SWAP1 SSTORE POP DUP3 PUSH1 0x5 PUSH1 0x0 PUSH2 0x100 EXP DUP2 SLOAD DUP2 PUSH4 0xFFFFFFFF MUL NOT AND SWAP1 DUP4 PUSH4 0xFFFFFFFF AND MUL OR SWAP1 SSTORE POP DUP2 PUSH1 0x5 PUSH1 0x4 PUSH2 0x100 EXP DUP2 SLOAD DUP2 PUSH2 0xFFFF MUL NOT AND SWAP1 DUP4 PUSH2 0xFFFF AND MUL OR SWAP1 SSTORE POP DUP1 PUSH1 0x5 PUSH1 0x6 PUSH2 0x100 EXP DUP2 SLOAD DUP2 PUSH4 0xFFFFFFFF MUL NOT AND SWAP1 DUP4 PUSH4 0xFFFFFFFF AND MUL OR SWAP1 SSTORE POP POP POP POP POP POP JUMP JUMPDEST PUSH1 0x4 SLOAD DUP2 JUMP JUMPDEST PUSH1 0x1 PUSH1 0x0 SWAP1 SLOAD SWAP1 PUSH2 0x100 EXP SWAP1 DIV PUSH20 0xFFFFFFFFFFFFFFFFFFFFFFFFFFFFFFFFFFFFFFFF AND PUSH20 0xFFFFFFFFFFFFFFFFFFFFFFFFFFFFFFFFFFFFFFFF AND CALLER PUSH20 0xFFFFFFFFFFFFFFFFFFFFFFFFFFFFFFFFFFFFFFFF AND EQ PUSH2 0xA3F JUMPI PUSH1 0x40 MLOAD PUSH32 0x8C379A000000000000000000000000000000000000000000000000000000000 DUP2 MSTORE PUSH1 0x4 ADD PUSH2 0xA36 SWAP1 PUSH2 0x2576 JUMP JUMPDEST PUSH1 0x40 MLOAD DUP1 SWAP2 SUB SWAP1 REVERT JUMPDEST PUSH1 0x0 DUP1 PUSH1 0x0 SWAP1 SLOAD SWAP1 PUSH2 0x100 EXP SWAP1 DIV PUSH20 0xFFFFFFFFFFFFFFFFFFFFFFFFFFFFFFFFFFFFFFFF AND SWAP1 POP CALLER PUSH1 0x0 DUP1 PUSH2 0x100 EXP DUP2 SLOAD DUP2 PUSH20 0xFFFFFFFFFFFFFFFFFFFFFFFFFFFFFFFFFFFFFFFF MUL NOT AND SWAP1 DUP4 PUSH20 0xFFFFFFFFFFFFFFFFFFFFFFFFFFFFFFFFFFFFFFFF AND MUL OR SWAP1 SSTORE POP PUSH1 0x0 PUSH1 0x1 PUSH1 0x0 PUSH2 0x100 EXP DUP2 SLOAD DUP2 PUSH20 0xFFFFFFFFFFFFFFFFFFFFFFFFFFFFFFFFFFFFFFFF MUL NOT AND SWAP1 DUP4 PUSH20 0xFFFFFFFFFFFFFFFFFFFFFFFFFFFFFFFFFFFFFFFF AND MUL OR SWAP1 SSTORE POP CALLER PUSH20 0xFFFFFFFFFFFFFFFFFFFFFFFFFFFFFFFFFFFFFFFF AND DUP2 PUSH20 0xFFFFFFFFFFFFFFFFFFFFFFFFFFFFFFFFFFFFFFFF AND PUSH32 0x8BE0079C531659141344CD1FD0A4F28419497F9722A3DAAFE3B4186F6B6457E0 PUSH1 0x40 MLOAD PUSH1 0x40 MLOAD DUP1 SWAP2 SUB SWAP1 LOG3 POP JUMP JUMPDEST PUSH1 0x5 PUSH1 0x6 SWAP1 SLOAD SWAP1 PUSH2 0x100 EXP SWAP1 DIV PUSH4 0xFFFFFFFF AND DUP2 JUMP JUMPDEST PUSH1 0x0 DUP1 PUSH1 0x0 SWAP1 SLOAD SWAP1 PUSH2 0x100 EXP SWAP1 DIV PUSH20 0xFFFFFFFFFFFFFFFFFFFFFFFFFFFFFFFFFFFFFFFF AND SWAP1 POP SWAP1 JUMP JUMPDEST PUSH2 0xB8B PUSH2 0xB5A JUMP JUMPDEST PUSH20 0xFFFFFFFFFFFFFFFFFFFFFFFFFFFFFFFFFFFFFFFF AND CALLER PUSH20 0xFFFFFFFFFFFFFFFFFFFFFFFFFFFFFFFFFFFFFFFF AND EQ ISZERO DUP1 ISZERO PUSH2 0xC14 JUMPI POP PUSH1 0x2 PUSH1 0x0 SWAP1 SLOAD SWAP1 PUSH2 0x100 EXP SWAP1 DIV PUSH20 0xFFFFFFFFFFFFFFFFFFFFFFFFFFFFFFFFFFFFFFFF AND PUSH20 0xFFFFFFFFFFFFFFFFFFFFFFFFFFFFFFFFFFFFFFFF AND CALLER PUSH20 0xFFFFFFFFFFFFFFFFFFFFFFFFFFFFFFFFFFFFFFFF AND EQ ISZERO JUMPDEST ISZERO PUSH2 0xC83 JUMPI CALLER PUSH2 0xC22 PUSH2 0xB5A JUMP JUMPDEST PUSH1 0x2 PUSH1 0x0 SWAP1 SLOAD SWAP1 PUSH2 0x100 EXP SWAP1 DIV PUSH20 0xFFFFFFFFFFFFFFFFFFFFFFFFFFFFFFFFFFFFFFFF AND PUSH1 0x40 MLOAD PUSH32 0x61DB9C100000000000000000000000000000000000000000000000000000000 DUP2 MSTORE PUSH1 0x4 ADD PUSH2 0xC7A SWAP4 SWAP3 SWAP2 SWAP1 PUSH2 0x2596 JUMP JUMPDEST PUSH1 0x40 MLOAD DUP1 SWAP2 SUB SWAP1 REVERT JUMPDEST PUSH1 0x0 PUSH20 0xFFFFFFFFFFFFFFFFFFFFFFFFFFFFFFFFFFFFFFFF AND DUP2 PUSH20 0xFFFFFFFFFFFFFFFFFFFFFFFFFFFFFFFFFFFFFFFF AND SUB PUSH2 0xCE9 JUMPI PUSH1 0x40 MLOAD PUSH32 0xD92E233D00000000000000000000000000000000000000000000000000000000 DUP2 MSTORE PUSH1 0x4 ADD PUSH1 0x40 MLOAD DUP1 SWAP2 SUB SWAP1 REVERT JUMPDEST DUP1 PUSH1 0x2 PUSH1 0x0 PUSH2 0x100 EXP DUP2 SLOAD DUP2 PUSH20 0xFFFFFFFFFFFFFFFFFFFFFFFFFFFFFFFFFFFFFFFF MUL NOT AND SWAP1 DUP4 PUSH20 0xFFFFFFFFFFFFFFFFFFFFFFFFFFFFFFFFFFFFFFFF AND MUL OR SWAP1 SSTORE POP PUSH32 0xD1A6A14209A385A964D036E404CB5CFB71F4000CDB03C9366292430787261BE6 DUP2 PUSH1 0x40 MLOAD PUSH2 0xD59 SWAP2 SWAP1 PUSH2 0x1B3F JUMP JUMPDEST PUSH1 0x40 MLOAD DUP1 SWAP2 SUB SWAP1 LOG1 POP JUMP JUMPDEST PUSH1 0x0 DUP1 PUSH1 0x0 DUP1 PUSH1 0x0 DUP1 PUSH1 0x0 PUSH1 0x8 DUP10 DUP10 PUSH1 0x40 MLOAD PUSH2 0xD81 SWAP3 SWAP2 SWAP1 PUSH2 0x1EE6 JUMP JUMPDEST SWAP1 DUP2 MSTORE PUSH1 0x20 ADD PUSH1 0x40 MLOAD DUP1 SWAP2 SUB SWAP1 KECCAK256 PUSH1 0x40 MLOAD DUP1 PUSH1 0xA0 ADD PUSH1 0x40 MSTORE SWAP1 DUP2 PUSH1 0x0 DUP3 ADD PUSH1 0x0 SWAP1 SLOAD SWAP1 PUSH2 0x100 EXP SWAP1 DIV PUSH1 0xFF AND ISZERO ISZERO ISZERO ISZERO DUP2 MSTORE PUSH1 0x20 ADD PUSH1 0x0 DUP3 ADD PUSH1 0x1 SWAP1 SLOAD SWAP1 PUSH2 0x100 EXP SWAP1 DIV PUSH20 0xFFFFFFFFFFFFFFFFFFFFFFFFFFFFFFFFFFFFFFFF AND PUSH20 0xFFFFFFFFFFFFFFFFFFFFFFFFFFFFFFFFFFFFFFFF AND PUSH20 0xFFFFFFFFFFFFFFFFFFFFFFFFFFFFFFFFFFFFFFFF AND DUP2 MSTORE PUSH1 0x20 ADD PUSH1 0x1 DUP3 ADD SLOAD DUP2 MSTORE PUSH1 0x20 ADD PUSH1 0x2 DUP3 ADD SLOAD DUP2 MSTORE PUSH1 0x20 ADD PUSH1 0x3 DUP3 ADD SLOAD DUP2 MSTORE POP POP SWAP1 POP PUSH1 0x0 PUSH1 0x7 DUP11 DUP11 PUSH1 0x40 MLOAD PUSH2 0xE3F SWAP3 SWAP2 SWAP1 PUSH2 0x1EE6 JUMP JUMPDEST SWAP1 DUP2 MSTORE PUSH1 0x20 ADD PUSH1 0x40 MLOAD DUP1 SWAP2 SUB SWAP1 KECCAK256 SLOAD SWAP1 POP DUP2 PUSH1 0x0 ADD MLOAD DUP3 PUSH1 0x20 ADD MLOAD DUP4 PUSH1 0x40 ADD MLOAD DUP5 PUSH1 0x60 ADD MLOAD DUP6 PUSH1 0x80 ADD MLOAD DUP6 SWAP8 POP SWAP8 POP SWAP8 POP SWAP8 POP SWAP8 POP SWAP8 POP POP POP SWAP3 SWAP6 POP SWAP3 SWAP6 POP SWAP3 SWAP6 JUMP JUMPDEST PUSH1 0x2 PUSH1 0x0 SWAP1 SLOAD SWAP1 PUSH2 0x100 EXP SWAP1 DIV PUSH20 0xFFFFFFFFFFFFFFFFFFFFFFFFFFFFFFFFFFFFFFFF AND DUP2 JUMP JUMPDEST PUSH1 0x6 PUSH1 0x20 MSTORE DUP1 PUSH1 0x0 MSTORE PUSH1 0x40 PUSH1 0x0 KECCAK256 PUSH1 0x0 SWAP2 POP SWAP1 POP DUP1 PUSH1 0x0 ADD DUP1 SLOAD PUSH2 0xECB SWAP1 PUSH2 0x225C JUMP JUMPDEST DUP1 PUSH1 0x1F ADD PUSH1 0x20 DUP1 SWAP2 DIV MUL PUSH1 0x20 ADD PUSH1 0x40 MLOAD SWAP1 DUP2 ADD PUSH1 0x40 MSTORE DUP1 SWAP3 SWAP2 SWAP1 DUP2 DUP2 MSTORE PUSH1 0x20 ADD DUP3 DUP1 SLOAD PUSH2 0xEF7 SWAP1 PUSH2 0x225C JUMP JUMPDEST DUP1 ISZERO PUSH2 0xF44 JUMPI DUP1 PUSH1 0x1F LT PUSH2 0xF19 JUMPI PUSH2 0x100 DUP1 DUP4 SLOAD DIV MUL DUP4 MSTORE SWAP2 PUSH1 0x20 ADD SWAP2 PUSH2 0xF44 JUMP JUMPDEST DUP3 ADD SWAP2 SWAP1 PUSH1 0x0 MSTORE PUSH1 0x20 PUSH1 0x0 KECCAK256 SWAP1 JUMPDEST DUP2 SLOAD DUP2 MSTORE SWAP1 PUSH1 0x1 ADD SWAP1 PUSH1 0x20 ADD DUP1 DUP4 GT PUSH2 0xF27 JUMPI DUP3 SWAP1 SUB PUSH1 0x1F AND DUP3 ADD SWAP2 JUMPDEST POP POP POP POP POP SWAP1 DUP1 PUSH1 0x1 ADD PUSH1 0x0 SWAP1 SLOAD SWAP1 PUSH2 0x100 EXP SWAP1 DIV PUSH20 0xFFFFFFFFFFFFFFFFFFFFFFFFFFFFFFFFFFFFFFFF AND SWAP1 DUP1 PUSH1 0x1 ADD PUSH1 0x14 SWAP1 SLOAD SWAP1 PUSH2 0x100 EXP SWAP1 DIV PUSH1 0xFF AND SWAP1 POP DUP4 JUMP JUMPDEST PUSH1 0x5 PUSH1 0x4 SWAP1 SLOAD SWAP1 PUSH2 0x100 EXP SWAP1 DIV PUSH2 0xFFFF AND DUP2 JUMP JUMPDEST PUSH2 0xFA3 PUSH2 0xFAF JUMP JUMPDEST PUSH2 0xFAC DUP2 PUSH2 0x1455 JUMP JUMPDEST POP JUMP JUMPDEST PUSH1 0x0 DUP1 SLOAD SWAP1 PUSH2 0x100 EXP SWAP1 DIV PUSH20 0xFFFFFFFFFFFFFFFFFFFFFFFFFFFFFFFFFFFFFFFF AND PUSH20 0xFFFFFFFFFFFFFFFFFFFFFFFFFFFFFFFFFFFFFFFF AND CALLER PUSH20 0xFFFFFFFFFFFFFFFFFFFFFFFFFFFFFFFFFFFFFFFF AND EQ PUSH2 0x103D JUMPI PUSH1 0x40 MLOAD PUSH32 0x8C379A000000000000000000000000000000000000000000000000000000000 DUP2 MSTORE PUSH1 0x4 ADD PUSH2 0x1034 SWAP1 PUSH2 0x2619 JUMP JUMPDEST PUSH1 0x40 MLOAD DUP1 SWAP2 SUB SWAP1 REVERT JUMPDEST JUMP JUMPDEST PUSH1 0x60 PUSH32 0x92FD13387C7FE7BEFBC38D303D6468778FB9731BC4583F17D92989C6FCFDEAAA DUP3 PUSH1 0x40 MLOAD PUSH1 0x24 ADD PUSH2 0x1073 SWAP2 SWAP1 PUSH2 0x2664 JUMP JUMPDEST PUSH1 0x40 MLOAD PUSH1 0x20 DUP2 DUP4 SUB SUB DUP2 MSTORE SWAP1 PUSH1 0x40 MSTORE SWAP1 PUSH28 0xFFFFFFFFFFFFFFFFFFFFFFFFFFFFFFFFFFFFFFFFFFFFFFFFFFFFFFFF NOT AND PUSH1 0x20 DUP3 ADD DUP1 MLOAD PUSH28 0xFFFFFFFFFFFFFFFFFFFFFFFFFFFFFFFFFFFFFFFFFFFFFFFFFFFFFFFF DUP4 DUP2 DUP4 AND OR DUP4 MSTORE POP POP POP POP SWAP1 POP SWAP2 SWAP1 POP JUMP JUMPDEST PUSH1 0x0 PUSH1 0x6 PUSH1 0x0 DUP6 DUP2 MSTORE PUSH1 0x20 ADD SWAP1 DUP2 MSTORE PUSH1 0x20 ADD PUSH1 0x0 KECCAK256 PUSH1 0x40 MLOAD DUP1 PUSH1 0x60 ADD PUSH1 0x40 MSTORE SWAP1 DUP2 PUSH1 0x0 DUP3 ADD DUP1 SLOAD PUSH2 0x1107 SWAP1 PUSH2 0x225C JUMP JUMPDEST DUP1 PUSH1 0x1F ADD PUSH1 0x20 DUP1 SWAP2 DIV MUL PUSH1 0x20 ADD PUSH1 0x40 MLOAD SWAP1 DUP2 ADD PUSH1 0x40 MSTORE DUP1 SWAP3 SWAP2 SWAP1 DUP2 DUP2 MSTORE PUSH1 0x20 ADD DUP3 DUP1 SLOAD PUSH2 0x1133 SWAP1 PUSH2 0x225C JUMP JUMPDEST DUP1 ISZERO PUSH2 0x1180 JUMPI DUP1 PUSH1 0x1F LT PUSH2 0x1155 JUMPI PUSH2 0x100 DUP1 DUP4 SLOAD DIV MUL DUP4 MSTORE SWAP2 PUSH1 0x20 ADD SWAP2 PUSH2 0x1180 JUMP JUMPDEST DUP3 ADD SWAP2 SWAP1 PUSH1 0x0 MSTORE PUSH1 0x20 PUSH1 0x0 KECCAK256 SWAP1 JUMPDEST DUP2 SLOAD DUP2 MSTORE SWAP1 PUSH1 0x1 ADD SWAP1 PUSH1 0x20 ADD DUP1 DUP4 GT PUSH2 0x1163 JUMPI DUP3 SWAP1 SUB PUSH1 0x1F AND DUP3 ADD SWAP2 JUMPDEST POP POP POP POP POP DUP2 MSTORE PUSH1 0x20 ADD PUSH1 0x1 DUP3 ADD PUSH1 0x0 SWAP1 SLOAD SWAP1 PUSH2 0x100 EXP SWAP1 DIV PUSH20 0xFFFFFFFFFFFFFFFFFFFFFFFFFFFFFFFFFFFFFFFF AND PUSH20 0xFFFFFFFFFFFFFFFFFFFFFFFFFFFFFFFFFFFFFFFF AND PUSH20 0xFFFFFFFFFFFFFFFFFFFFFFFFFFFFFFFFFFFFFFFF AND DUP2 MSTORE PUSH1 0x20 ADD PUSH1 0x1 DUP3 ADD PUSH1 0x14 SWAP1 SLOAD SWAP1 PUSH2 0x100 EXP SWAP1 DIV PUSH1 0xFF AND ISZERO ISZERO ISZERO ISZERO DUP2 MSTORE POP POP SWAP1 POP DUP1 PUSH1 0x40 ADD MLOAD PUSH2 0x1240 JUMPI PUSH1 0x40 MLOAD PUSH32 0x8C379A000000000000000000000000000000000000000000000000000000000 DUP2 MSTORE PUSH1 0x4 ADD PUSH2 0x1237 SWAP1 PUSH2 0x26CB JUMP JUMPDEST PUSH1 0x40 MLOAD DUP1 SWAP2 SUB SWAP1 REVERT JUMPDEST PUSH1 0x0 DUP1 DUP5 DUP5 SWAP1 POP GT PUSH2 0x1253 JUMPI PUSH1 0x0 PUSH2 0x126F JUMP JUMPDEST DUP4 DUP4 PUSH1 0x0 DUP2 DUP2 LT PUSH2 0x1267 JUMPI PUSH2 0x1266 PUSH2 0x26EB JUMP JUMPDEST JUMPDEST SWAP1 POP PUSH1 0x20 MUL ADD CALLDATALOAD JUMPDEST SWAP1 POP PUSH1 0x0 PUSH1 0x1 PUSH1 0x5 DUP4 PUSH2 0x1282 SWAP2 SWAP1 PUSH2 0x2749 JUMP JUMPDEST PUSH2 0x128C SWAP2 SWAP1 PUSH2 0x27A9 JUMP JUMPDEST SWAP1 POP PUSH1 0x40 MLOAD DUP1 PUSH1 0xA0 ADD PUSH1 0x40 MSTORE DUP1 PUSH1 0x1 ISZERO ISZERO DUP2 MSTORE PUSH1 0x20 ADD DUP5 PUSH1 0x20 ADD MLOAD PUSH20 0xFFFFFFFFFFFFFFFFFFFFFFFFFFFFFFFFFFFFFFFF AND DUP2 MSTORE PUSH1 0x20 ADD DUP3 DUP2 MSTORE PUSH1 0x20 ADD DUP4 DUP2 MSTORE PUSH1 0x20 ADD TIMESTAMP DUP2 MSTORE POP PUSH1 0x8 DUP5 PUSH1 0x0 ADD MLOAD PUSH1 0x40 MLOAD PUSH2 0x12E6 SWAP2 SWAP1 PUSH2 0x280E JUMP JUMPDEST SWAP1 DUP2 MSTORE PUSH1 0x20 ADD PUSH1 0x40 MLOAD DUP1 SWAP2 SUB SWAP1 KECCAK256 PUSH1 0x0 DUP3 ADD MLOAD DUP2 PUSH1 0x0 ADD PUSH1 0x0 PUSH2 0x100 EXP DUP2 SLOAD DUP2 PUSH1 0xFF MUL NOT AND SWAP1 DUP4 ISZERO ISZERO MUL OR SWAP1 SSTORE POP PUSH1 0x20 DUP3 ADD MLOAD DUP2 PUSH1 0x0 ADD PUSH1 0x1 PUSH2 0x100 EXP DUP2 SLOAD DUP2 PUSH20 0xFFFFFFFFFFFFFFFFFFFFFFFFFFFFFFFFFFFFFFFF MUL NOT AND SWAP1 DUP4 PUSH20 0xFFFFFFFFFFFFFFFFFFFFFFFFFFFFFFFFFFFFFFFF AND MUL OR SWAP1 SSTORE POP PUSH1 0x40 DUP3 ADD MLOAD DUP2 PUSH1 0x1 ADD SSTORE PUSH1 0x60 DUP3 ADD MLOAD DUP2 PUSH1 0x2 ADD SSTORE PUSH1 0x80 DUP3 ADD MLOAD DUP2 PUSH1 0x3 ADD SSTORE SWAP1 POP POP PUSH1 0x6 PUSH1 0x0 DUP8 DUP2 MSTORE PUSH1 0x20 ADD SWAP1 DUP2 MSTORE PUSH1 0x20 ADD PUSH1 0x0 KECCAK256 PUSH1 0x0 DUP1 DUP3 ADD PUSH1 0x0 PUSH2 0x13A0 SWAP2 SWAP1 PUSH2 0x1581 JUMP JUMPDEST PUSH1 0x1 DUP3 ADD PUSH1 0x0 PUSH2 0x100 EXP DUP2 SLOAD SWAP1 PUSH20 0xFFFFFFFFFFFFFFFFFFFFFFFFFFFFFFFFFFFFFFFF MUL NOT AND SWAP1 SSTORE PUSH1 0x1 DUP3 ADD PUSH1 0x14 PUSH2 0x100 EXP DUP2 SLOAD SWAP1 PUSH1 0xFF MUL NOT AND SWAP1 SSTORE POP POP DUP3 PUSH1 0x20 ADD MLOAD PUSH20 0xFFFFFFFFFFFFFFFFFFFFFFFFFFFFFFFFFFFFFFFF AND DUP4 PUSH1 0x0 ADD MLOAD PUSH1 0x40 MLOAD PUSH2 0x140A SWAP2 SWAP1 PUSH2 0x280E JUMP JUMPDEST PUSH1 0x40 MLOAD DUP1 SWAP2 SUB SWAP1 KECCAK256 PUSH32 0x369E6CBD91E8F226D4DE16BFD9DFBECC8C2C72FD6044D4BDB9BB7EA542E3D1F DUP4 DUP6 TIMESTAMP PUSH1 0x40 MLOAD PUSH2 0x1445 SWAP4 SWAP3 SWAP2 SWAP1 PUSH2 0x2825 JUMP JUMPDEST PUSH1 0x40 MLOAD DUP1 SWAP2 SUB SWAP1 LOG3 POP POP POP POP POP POP JUMP JUMPDEST CALLER PUSH20 0xFFFFFFFFFFFFFFFFFFFFFFFFFFFFFFFFFFFFFFFF AND DUP2 PUSH20 0xFFFFFFFFFFFFFFFFFFFFFFFFFFFFFFFFFFFFFFFF AND SUB PUSH2 0x14C3 JUMPI PUSH1 0x40 MLOAD PUSH32 0x8C379A000000000000000000000000000000000000000000000000000000000 DUP2 MSTORE PUSH1 0x4 ADD PUSH2 0x14BA SWAP1 PUSH2 0x28A8 JUMP JUMPDEST PUSH1 0x40 MLOAD DUP1 SWAP2 SUB SWAP1 REVERT JUMPDEST DUP1 PUSH1 0x1 PUSH1 0x0 PUSH2 0x100 EXP DUP2 SLOAD DUP2 PUSH20 0xFFFFFFFFFFFFFFFFFFFFFFFFFFFFFFFFFFFFFFFF MUL NOT AND SWAP1 DUP4 PUSH20 0xFFFFFFFFFFFFFFFFFFFFFFFFFFFFFFFFFFFFFFFF AND MUL OR SWAP1 SSTORE POP DUP1 PUSH20 0xFFFFFFFFFFFFFFFFFFFFFFFFFFFFFFFFFFFFFFFF AND PUSH1 0x0 DUP1 SLOAD SWAP1 PUSH2 0x100 EXP SWAP1 DIV PUSH20 0xFFFFFFFFFFFFFFFFFFFFFFFFFFFFFFFFFFFFFFFF AND PUSH20 0xFFFFFFFFFFFFFFFFFFFFFFFFFFFFFFFFFFFFFFFF AND PUSH32 0xED8889F560326EB138920D842192F0EB3DD22B4F139C87A2C57538E05BAE1278 PUSH1 0x40 MLOAD PUSH1 0x40 MLOAD DUP1 SWAP2 SUB SWAP1 LOG3 POP JUMP JUMPDEST POP DUP1 SLOAD PUSH2 0x158D SWAP1 PUSH2 0x225C JUMP JUMPDEST PUSH1 0x0 DUP3 SSTORE DUP1 PUSH1 0x1F LT PUSH2 0x159F JUMPI POP PUSH2 0x15BE JUMP JUMPDEST PUSH1 0x1F ADD PUSH1 0x20 SWAP1 DIV SWAP1 PUSH1 0x0 MSTORE PUSH1 0x20 PUSH1 0x0 KECCAK256 SWAP1 DUP2 ADD SWAP1 PUSH2 0x15BD SWAP2 SWAP1 PUSH2 0x15C1 JUMP JUMPDEST JUMPDEST POP JUMP JUMPDEST JUMPDEST DUP1 DUP3 GT ISZERO PUSH2 0x15DA JUMPI PUSH1 0x0 DUP2 PUSH1 0x0 SWAP1 SSTORE POP PUSH1 0x1 ADD PUSH2 0x15C2 JUMP JUMPDEST POP SWAP1 JUMP JUMPDEST PUSH1 0x0 DUP2 SWAP1 POP SWAP2 SWAP1 POP JUMP JUMPDEST PUSH2 0x15F1 DUP2 PUSH2 0x15DE JUMP JUMPDEST DUP3 MSTORE POP POP JUMP JUMPDEST PUSH1 0x0 PUSH1 0x20 DUP3 ADD SWAP1 POP PUSH2 0x160C PUSH1 0x0 DUP4 ADD DUP5 PUSH2 0x15E8 JUMP JUMPDEST SWAP3 SWAP2 POP POP JUMP JUMPDEST PUSH1 0x0 PUSH1 0x40 MLOAD SWAP1 POP SWAP1 JUMP JUMPDEST PUSH1 0x0 DUP1 REVERT JUMPDEST PUSH1 0x0 DUP1 REVERT JUMPDEST PUSH1 0x0 DUP1 REVERT JUMPDEST PUSH1 0x0 DUP1 REVERT JUMPDEST PUSH1 0x0 DUP1 REVERT JUMPDEST PUSH1 0x0 DUP1 DUP4 PUSH1 0x1F DUP5 ADD SLT PUSH2 0x164B JUMPI PUSH2 0x164A PUSH2 0x1626 JUMP JUMPDEST JUMPDEST DUP3 CALLDATALOAD SWAP1 POP PUSH8 0xFFFFFFFFFFFFFFFF DUP2 GT ISZERO PUSH2 0x1668 JUMPI PUSH2 0x1667 PUSH2 0x162B JUMP JUMPDEST JUMPDEST PUSH1 0x20 DUP4 ADD SWAP2 POP DUP4 PUSH1 0x1 DUP3 MUL DUP4 ADD GT ISZERO PUSH2 0x1684 JUMPI PUSH2 0x1683 PUSH2 0x1630 JUMP JUMPDEST JUMPDEST SWAP3 POP SWAP3 SWAP1 POP JUMP JUMPDEST PUSH1 0x0 PUSH20 0xFFFFFFFFFFFFFFFFFFFFFFFFFFFFFFFFFFFFFFFF DUP3 AND SWAP1 POP SWAP2 SWAP1 POP JUMP JUMPDEST PUSH1 0x0 PUSH2 0x16B6 DUP3 PUSH2 0x168B JUMP JUMPDEST SWAP1 POP SWAP2 SWAP1 POP JUMP JUMPDEST PUSH2 0x16C6 DUP2 PUSH2 0x16AB JUMP JUMPDEST DUP2 EQ PUSH2 0x16D1 JUMPI PUSH1 0x0 DUP1 REVERT JUMPDEST POP JUMP JUMPDEST PUSH1 0x0 DUP2 CALLDATALOAD SWAP1 POP PUSH2 0x16E3 DUP2 PUSH2 0x16BD JUMP JUMPDEST SWAP3 SWAP2 POP POP JUMP JUMPDEST PUSH1 0x0 DUP1 PUSH1 0x0 PUSH1 0x40 DUP5 DUP7 SUB SLT ISZERO PUSH2 0x1702 JUMPI PUSH2 0x1701 PUSH2 0x161C JUMP JUMPDEST JUMPDEST PUSH1 0x0 DUP5 ADD CALLDATALOAD PUSH8 0xFFFFFFFFFFFFFFFF DUP2 GT ISZERO PUSH2 0x1720 JUMPI PUSH2 0x171F PUSH2 0x1621 JUMP JUMPDEST JUMPDEST PUSH2 0x172C DUP7 DUP3 DUP8 ADD PUSH2 0x1635 JUMP JUMPDEST SWAP4 POP SWAP4 POP POP PUSH1 0x20 PUSH2 0x173F DUP7 DUP3 DUP8 ADD PUSH2 0x16D4 JUMP JUMPDEST SWAP2 POP POP SWAP3 POP SWAP3 POP SWAP3 JUMP JUMPDEST PUSH2 0x1752 DUP2 PUSH2 0x15DE JUMP JUMPDEST DUP2 EQ PUSH2 0x175D JUMPI PUSH1 0x0 DUP1 REVERT JUMPDEST POP JUMP JUMPDEST PUSH1 0x0 DUP2 CALLDATALOAD SWAP1 POP PUSH2 0x176F DUP2 PUSH2 0x1749 JUMP JUMPDEST SWAP3 SWAP2 POP POP JUMP JUMPDEST PUSH1 0x0 DUP1 DUP4 PUSH1 0x1F DUP5 ADD SLT PUSH2 0x178B JUMPI PUSH2 0x178A PUSH2 0x1626 JUMP JUMPDEST JUMPDEST DUP3 CALLDATALOAD SWAP1 POP PUSH8 0xFFFFFFFFFFFFFFFF DUP2 GT ISZERO PUSH2 0x17A8 JUMPI PUSH2 0x17A7 PUSH2 0x162B JUMP JUMPDEST JUMPDEST PUSH1 0x20 DUP4 ADD SWAP2 POP DUP4 PUSH1 0x20 DUP3 MUL DUP4 ADD GT ISZERO PUSH2 0x17C4 JUMPI PUSH2 0x17C3 PUSH2 0x1630 JUMP JUMPDEST JUMPDEST SWAP3 POP SWAP3 SWAP1 POP JUMP JUMPDEST PUSH1 0x0 DUP1 PUSH1 0x0 PUSH1 0x40 DUP5 DUP7 SUB SLT ISZERO PUSH2 0x17E4 JUMPI PUSH2 0x17E3 PUSH2 0x161C JUMP JUMPDEST JUMPDEST PUSH1 0x0 PUSH2 0x17F2 DUP7 DUP3 DUP8 ADD PUSH2 0x1760 JUMP JUMPDEST SWAP4 POP POP PUSH1 0x20 DUP5 ADD CALLDATALOAD PUSH8 0xFFFFFFFFFFFFFFFF DUP2 GT ISZERO PUSH2 0x1813 JUMPI PUSH2 0x1812 PUSH2 0x1621 JUMP JUMPDEST JUMPDEST PUSH2 0x181F DUP7 DUP3 DUP8 ADD PUSH2 0x1775 JUMP JUMPDEST SWAP3 POP SWAP3 POP POP SWAP3 POP SWAP3 POP SWAP3 JUMP JUMPDEST PUSH1 0x0 PUSH4 0xFFFFFFFF DUP3 AND SWAP1 POP SWAP2 SWAP1 POP JUMP JUMPDEST PUSH2 0x1844 DUP2 PUSH2 0x182B JUMP JUMPDEST DUP3 MSTORE POP POP JUMP JUMPDEST PUSH1 0x0 PUSH1 0x20 DUP3 ADD SWAP1 POP PUSH2 0x185F PUSH1 0x0 DUP4 ADD DUP5 PUSH2 0x183B JUMP JUMPDEST SWAP3 SWAP2 POP POP JUMP JUMPDEST PUSH1 0x0 DUP1 REVERT JUMPDEST PUSH1 0x0 PUSH1 0x1F NOT PUSH1 0x1F DUP4 ADD AND SWAP1 POP SWAP2 SWAP1 POP JUMP JUMPDEST PUSH32 0x4E487B7100000000000000000000000000000000000000000000000000000000 PUSH1 0x0 MSTORE PUSH1 0x41 PUSH1 0x4 MSTORE PUSH1 0x24 PUSH1 0x0 REVERT JUMPDEST PUSH2 0x18B3 DUP3 PUSH2 0x186A JUMP JUMPDEST DUP2 ADD DUP2 DUP2 LT PUSH8 0xFFFFFFFFFFFFFFFF DUP3 GT OR ISZERO PUSH2 0x18D2 JUMPI PUSH2 0x18D1 PUSH2 0x187B JUMP JUMPDEST JUMPDEST DUP1 PUSH1 0x40 MSTORE POP POP POP JUMP JUMPDEST PUSH1 0x0 PUSH2 0x18E5 PUSH2 0x1612 JUMP JUMPDEST SWAP1 POP PUSH2 0x18F1 DUP3 DUP3 PUSH2 0x18AA JUMP JUMPDEST SWAP2 SWAP1 POP JUMP JUMPDEST PUSH1 0x0 PUSH8 0xFFFFFFFFFFFFFFFF DUP3 GT ISZERO PUSH2 0x1911 JUMPI PUSH2 0x1910 PUSH2 0x187B JUMP JUMPDEST JUMPDEST PUSH2 0x191A DUP3 PUSH2 0x186A JUMP JUMPDEST SWAP1 POP PUSH1 0x20 DUP2 ADD SWAP1 POP SWAP2 SWAP1 POP JUMP JUMPDEST DUP3 DUP2 DUP4 CALLDATACOPY PUSH1 0x0 DUP4 DUP4 ADD MSTORE POP POP POP JUMP JUMPDEST PUSH1 0x0 PUSH2 0x1949 PUSH2 0x1944 DUP5 PUSH2 0x18F6 JUMP JUMPDEST PUSH2 0x18DB JUMP JUMPDEST SWAP1 POP DUP3 DUP2 MSTORE PUSH1 0x20 DUP2 ADD DUP5 DUP5 DUP5 ADD GT ISZERO PUSH2 0x1965 JUMPI PUSH2 0x1964 PUSH2 0x1865 JUMP JUMPDEST JUMPDEST PUSH2 0x1970 DUP5 DUP3 DUP6 PUSH2 0x1927 JUMP JUMPDEST POP SWAP4 SWAP3 POP POP POP JUMP JUMPDEST PUSH1 0x0 DUP3 PUSH1 0x1F DUP4 ADD SLT PUSH2 0x198D JUMPI PUSH2 0x198C PUSH2 0x1626 JUMP JUMPDEST JUMPDEST DUP2 CALLDATALOAD PUSH2 0x199D DUP5 DUP3 PUSH1 0x20 DUP7 ADD PUSH2 0x1936 JUMP JUMPDEST SWAP2 POP POP SWAP3 SWAP2 POP POP JUMP JUMPDEST PUSH1 0x0 PUSH1 0x20 DUP3 DUP5 SUB SLT ISZERO PUSH2 0x19BC JUMPI PUSH2 0x19BB PUSH2 0x161C JUMP JUMPDEST JUMPDEST PUSH1 0x0 DUP3 ADD CALLDATALOAD PUSH8 0xFFFFFFFFFFFFFFFF DUP2 GT ISZERO PUSH2 0x19DA JUMPI PUSH2 0x19D9 PUSH2 0x1621 JUMP JUMPDEST JUMPDEST PUSH2 0x19E6 DUP5 DUP3 DUP6 ADD PUSH2 0x1978 JUMP JUMPDEST SWAP2 POP POP SWAP3 SWAP2 POP POP JUMP JUMPDEST PUSH1 0x0 DUP2 SWAP1 POP SWAP2 SWAP1 POP JUMP JUMPDEST PUSH2 0x1A02 DUP2 PUSH2 0x19EF JUMP JUMPDEST DUP2 EQ PUSH2 0x1A0D JUMPI PUSH1 0x0 DUP1 REVERT JUMPDEST POP JUMP JUMPDEST PUSH1 0x0 DUP2 CALLDATALOAD SWAP1 POP PUSH2 0x1A1F DUP2 PUSH2 0x19F9 JUMP JUMPDEST SWAP3 SWAP2 POP POP JUMP JUMPDEST PUSH2 0x1A2E DUP2 PUSH2 0x182B JUMP JUMPDEST DUP2 EQ PUSH2 0x1A39 JUMPI PUSH1 0x0 DUP1 REVERT JUMPDEST POP JUMP JUMPDEST PUSH1 0x0 DUP2 CALLDATALOAD SWAP1 POP PUSH2 0x1A4B DUP2 PUSH2 0x1A25 JUMP JUMPDEST SWAP3 SWAP2 POP POP JUMP JUMPDEST PUSH1 0x0 PUSH2 0xFFFF DUP3 AND SWAP1 POP SWAP2 SWAP1 POP JUMP JUMPDEST PUSH2 0x1A68 DUP2 PUSH2 0x1A51 JUMP JUMPDEST DUP2 EQ PUSH2 0x1A73 JUMPI PUSH1 0x0 DUP1 REVERT JUMPDEST POP JUMP JUMPDEST PUSH1 0x0 DUP2 CALLDATALOAD SWAP1 POP PUSH2 0x1A85 DUP2 PUSH2 0x1A5F JUMP JUMPDEST SWAP3 SWAP2 POP POP JUMP JUMPDEST PUSH1 0x0 DUP1 PUSH1 0x0 DUP1 PUSH1 0x0 PUSH1 0xA0 DUP7 DUP9 SUB SLT ISZERO PUSH2 0x1AA7 JUMPI PUSH2 0x1AA6 PUSH2 0x161C JUMP JUMPDEST JUMPDEST PUSH1 0x0 PUSH2 0x1AB5 DUP9 DUP3 DUP10 ADD PUSH2 0x1760 JUMP JUMPDEST SWAP6 POP POP PUSH1 0x20 PUSH2 0x1AC6 DUP9 DUP3 DUP10 ADD PUSH2 0x1A10 JUMP JUMPDEST SWAP5 POP POP PUSH1 0x40 PUSH2 0x1AD7 DUP9 DUP3 DUP10 ADD PUSH2 0x1A3C JUMP JUMPDEST SWAP4 POP POP PUSH1 0x60 PUSH2 0x1AE8 DUP9 DUP3 DUP10 ADD PUSH2 0x1A76 JUMP JUMPDEST SWAP3 POP POP PUSH1 0x80 PUSH2 0x1AF9 DUP9 DUP3 DUP10 ADD PUSH2 0x1A3C JUMP JUMPDEST SWAP2 POP POP SWAP3 SWAP6 POP SWAP3 SWAP6 SWAP1 SWAP4 POP JUMP JUMPDEST PUSH2 0x1B0F DUP2 PUSH2 0x19EF JUMP JUMPDEST DUP3 MSTORE POP POP JUMP JUMPDEST PUSH1 0x0 PUSH1 0x20 DUP3 ADD SWAP1 POP PUSH2 0x1B2A PUSH1 0x0 DUP4 ADD DUP5 PUSH2 0x1B06 JUMP JUMPDEST SWAP3 SWAP2 POP POP JUMP JUMPDEST PUSH2 0x1B39 DUP2 PUSH2 0x16AB JUMP JUMPDEST DUP3 MSTORE POP POP JUMP JUMPDEST PUSH1 0x0 PUSH1 0x20 DUP3 ADD SWAP1 POP PUSH2 0x1B54 PUSH1 0x0 DUP4 ADD DUP5 PUSH2 0x1B30 JUMP JUMPDEST SWAP3 SWAP2 POP POP JUMP JUMPDEST PUSH1 0x0 PUSH1 0x20 DUP3 DUP5 SUB SLT ISZERO PUSH2 0x1B70 JUMPI PUSH2 0x1B6F PUSH2 0x161C JUMP JUMPDEST JUMPDEST PUSH1 0x0 PUSH2 0x1B7E DUP5 DUP3 DUP6 ADD PUSH2 0x16D4 JUMP JUMPDEST SWAP2 POP POP SWAP3 SWAP2 POP POP JUMP JUMPDEST PUSH1 0x0 DUP1 PUSH1 0x20 DUP4 DUP6 SUB SLT ISZERO PUSH2 0x1B9E JUMPI PUSH2 0x1B9D PUSH2 0x161C JUMP JUMPDEST JUMPDEST PUSH1 0x0 DUP4 ADD CALLDATALOAD PUSH8 0xFFFFFFFFFFFFFFFF DUP2 GT ISZERO PUSH2 0x1BBC JUMPI PUSH2 0x1BBB PUSH2 0x1621 JUMP JUMPDEST JUMPDEST PUSH2 0x1BC8 DUP6 DUP3 DUP7 ADD PUSH2 0x1635 JUMP JUMPDEST SWAP3 POP SWAP3 POP POP SWAP3 POP SWAP3 SWAP1 POP JUMP JUMPDEST PUSH1 0x0 DUP2 ISZERO ISZERO SWAP1 POP SWAP2 SWAP1 POP JUMP JUMPDEST PUSH2 0x1BE9 DUP2 PUSH2 0x1BD4 JUMP JUMPDEST DUP3 MSTORE POP POP JUMP JUMPDEST PUSH1 0x0 PUSH1 0xC0 DUP3 ADD SWAP1 POP PUSH2 0x1C04 PUSH1 0x0 DUP4 ADD DUP10 PUSH2 0x1BE0 JUMP JUMPDEST PUSH2 0x1C11 PUSH1 0x20 DUP4 ADD DUP9 PUSH2 0x1B30 JUMP JUMPDEST PUSH2 0x1C1E PUSH1 0x40 DUP4 ADD DUP8 PUSH2 0x15E8 JUMP JUMPDEST PUSH2 0x1C2B PUSH1 0x60 DUP4 ADD DUP7 PUSH2 0x15E8 JUMP JUMPDEST PUSH2 0x1C38 PUSH1 0x80 DUP4 ADD DUP6 PUSH2 0x15E8 JUMP JUMPDEST PUSH2 0x1C45 PUSH1 0xA0 DUP4 ADD DUP5 PUSH2 0x15E8 JUMP JUMPDEST SWAP8 SWAP7 POP POP POP POP POP POP POP JUMP JUMPDEST PUSH1 0x0 DUP2 SWAP1 POP SWAP2 SWAP1 POP JUMP JUMPDEST PUSH1 0x0 PUSH2 0x1C75 PUSH2 0x1C70 PUSH2 0x1C6B DUP5 PUSH2 0x168B JUMP JUMPDEST PUSH2 0x1C50 JUMP JUMPDEST PUSH2 0x168B JUMP JUMPDEST SWAP1 POP SWAP2 SWAP1 POP JUMP JUMPDEST PUSH1 0x0 PUSH2 0x1C87 DUP3 PUSH2 0x1C5A JUMP JUMPDEST SWAP1 POP SWAP2 SWAP1 POP JUMP JUMPDEST PUSH1 0x0 PUSH2 0x1C99 DUP3 PUSH2 0x1C7C JUMP JUMPDEST SWAP1 POP SWAP2 SWAP1 POP JUMP JUMPDEST PUSH2 0x1CA9 DUP2 PUSH2 0x1C8E JUMP JUMPDEST DUP3 MSTORE POP POP JUMP JUMPDEST PUSH1 0x0 PUSH1 0x20 DUP3 ADD SWAP1 POP PUSH2 0x1CC4 PUSH1 0x0 DUP4 ADD DUP5 PUSH2 0x1CA0 JUMP JUMPDEST SWAP3 SWAP2 POP POP JUMP JUMPDEST PUSH1 0x0 PUSH1 0x20 DUP3 DUP5 SUB SLT ISZERO PUSH2 0x1CE0 JUMPI PUSH2 0x1CDF PUSH2 0x161C JUMP JUMPDEST JUMPDEST PUSH1 0x0 PUSH2 0x1CEE DUP5 DUP3 DUP6 ADD PUSH2 0x1760 JUMP JUMPDEST SWAP2 POP POP SWAP3 SWAP2 POP POP JUMP JUMPDEST PUSH1 0x0 DUP2 MLOAD SWAP1 POP SWAP2 SWAP1 POP JUMP JUMPDEST PUSH1 0x0 DUP3 DUP3 MSTORE PUSH1 0x20 DUP3 ADD SWAP1 POP SWAP3 SWAP2 POP POP JUMP JUMPDEST PUSH1 0x0 JUMPDEST DUP4 DUP2 LT ISZERO PUSH2 0x1D31 JUMPI DUP1 DUP3 ADD MLOAD DUP2 DUP5 ADD MSTORE PUSH1 0x20 DUP2 ADD SWAP1 POP PUSH2 0x1D16 JUMP JUMPDEST PUSH1 0x0 DUP5 DUP5 ADD MSTORE POP POP POP POP JUMP JUMPDEST PUSH1 0x0 PUSH2 0x1D48 DUP3 PUSH2 0x1CF7 JUMP JUMPDEST PUSH2 0x1D52 DUP2 DUP6 PUSH2 0x1D02 JUMP JUMPDEST SWAP4 POP PUSH2 0x1D62 DUP2 DUP6 PUSH1 0x20 DUP7 ADD PUSH2 0x1D13 JUMP JUMPDEST PUSH2 0x1D6B DUP2 PUSH2 0x186A JUMP JUMPDEST DUP5 ADD SWAP2 POP POP SWAP3 SWAP2 POP POP JUMP JUMPDEST PUSH1 0x0 PUSH1 0x60 DUP3 ADD SWAP1 POP DUP2 DUP2 SUB PUSH1 0x0 DUP4 ADD MSTORE PUSH2 0x1D90 DUP2 DUP7 PUSH2 0x1D3D JUMP JUMPDEST SWAP1 POP PUSH2 0x1D9F PUSH1 0x20 DUP4 ADD DUP6 PUSH2 0x1B30 JUMP JUMPDEST PUSH2 0x1DAC PUSH1 0x40 DUP4 ADD DUP5 PUSH2 0x1BE0 JUMP JUMPDEST SWAP5 SWAP4 POP POP POP POP JUMP JUMPDEST PUSH2 0x1DBD DUP2 PUSH2 0x1A51 JUMP JUMPDEST DUP3 MSTORE POP POP JUMP JUMPDEST PUSH1 0x0 PUSH1 0x20 DUP3 ADD SWAP1 POP PUSH2 0x1DD8 PUSH1 0x0 DUP4 ADD DUP5 PUSH2 0x1DB4 JUMP JUMPDEST SWAP3 SWAP2 POP POP JUMP JUMPDEST PUSH32 0x6D61746368496420726571756972656400000000000000000000000000000000 PUSH1 0x0 DUP3 ADD MSTORE POP JUMP JUMPDEST PUSH1 0x0 PUSH2 0x1E14 PUSH1 0x10 DUP4 PUSH2 0x1D02 JUMP JUMPDEST SWAP2 POP PUSH2 0x1E1F DUP3 PUSH2 0x1DDE JUMP JUMPDEST PUSH1 0x20 DUP3 ADD SWAP1 POP SWAP2 SWAP1 POP JUMP JUMPDEST PUSH1 0x0 PUSH1 0x20 DUP3 ADD SWAP1 POP DUP2 DUP2 SUB PUSH1 0x0 DUP4 ADD MSTORE PUSH2 0x1E43 DUP2 PUSH2 0x1E07 JUMP JUMPDEST SWAP1 POP SWAP2 SWAP1 POP JUMP JUMPDEST PUSH32 0x77696E6E65722072657175697265640000000000000000000000000000000000 PUSH1 0x0 DUP3 ADD MSTORE POP JUMP JUMPDEST PUSH1 0x0 PUSH2 0x1E80 PUSH1 0xF DUP4 PUSH2 0x1D02 JUMP JUMPDEST SWAP2 POP PUSH2 0x1E8B DUP3 PUSH2 0x1E4A JUMP JUMPDEST PUSH1 0x20 DUP3 ADD SWAP1 POP SWAP2 SWAP1 POP JUMP JUMPDEST PUSH1 0x0 PUSH1 0x20 DUP3 ADD SWAP1 POP DUP2 DUP2 SUB PUSH1 0x0 DUP4 ADD MSTORE PUSH2 0x1EAF DUP2 PUSH2 0x1E73 JUMP JUMPDEST SWAP1 POP SWAP2 SWAP1 POP JUMP JUMPDEST PUSH1 0x0 DUP2 SWAP1 POP SWAP3 SWAP2 POP POP JUMP JUMPDEST PUSH1 0x0 PUSH2 0x1ECD DUP4 DUP6 PUSH2 0x1EB6 JUMP JUMPDEST SWAP4 POP PUSH2 0x1EDA DUP4 DUP6 DUP5 PUSH2 0x1927 JUMP JUMPDEST DUP3 DUP5 ADD SWAP1 POP SWAP4 SWAP3 POP POP POP JUMP JUMPDEST PUSH1 0x0 PUSH2 0x1EF3 DUP3 DUP5 DUP7 PUSH2 0x1EC1 JUMP JUMPDEST SWAP2 POP DUP2 SWAP1 POP SWAP4 SWAP3 POP POP POP JUMP JUMPDEST PUSH32 0x4C6F6F7420616C72656164792072657175657374656400000000000000000000 PUSH1 0x0 DUP3 ADD MSTORE POP JUMP JUMPDEST PUSH1 0x0 PUSH2 0x1F35 PUSH1 0x16 DUP4 PUSH2 0x1D02 JUMP JUMPDEST SWAP2 POP PUSH2 0x1F40 DUP3 PUSH2 0x1EFF JUMP JUMPDEST PUSH1 0x20 DUP3 ADD SWAP1 POP SWAP2 SWAP1 POP JUMP JUMPDEST PUSH1 0x0 PUSH1 0x20 DUP3 ADD SWAP1 POP DUP2 DUP2 SUB PUSH1 0x0 DUP4 ADD MSTORE PUSH2 0x1F64 DUP2 PUSH2 0x1F28 JUMP JUMPDEST SWAP1 POP SWAP2 SWAP1 POP JUMP JUMPDEST PUSH32 0x565246207375624964206E6F7420736574000000000000000000000000000000 PUSH1 0x0 DUP3 ADD MSTORE POP JUMP JUMPDEST PUSH1 0x0 PUSH2 0x1FA1 PUSH1 0x11 DUP4 PUSH2 0x1D02 JUMP JUMPDEST SWAP2 POP PUSH2 0x1FAC DUP3 PUSH2 0x1F6B JUMP JUMPDEST PUSH1 0x20 DUP3 ADD SWAP1 POP SWAP2 SWAP1 POP JUMP JUMPDEST PUSH1 0x0 PUSH1 0x20 DUP3 ADD SWAP1 POP DUP2 DUP2 SUB PUSH1 0x0 DUP4 ADD MSTORE PUSH2 0x1FD0 DUP2 PUSH2 0x1F94 JUMP JUMPDEST SWAP1 POP SWAP2 SWAP1 POP JUMP JUMPDEST PUSH32 0x565246206B657948617368206E6F742073657400000000000000000000000000 PUSH1 0x0 DUP3 ADD MSTORE POP JUMP JUMPDEST PUSH1 0x0 PUSH2 0x200D PUSH1 0x13 DUP4 PUSH2 0x1D02 JUMP JUMPDEST SWAP2 POP PUSH2 0x2018 DUP3 PUSH2 0x1FD7 JUMP JUMPDEST PUSH1 0x20 DUP3 ADD SWAP1 POP SWAP2 SWAP1 POP JUMP JUMPDEST PUSH1 0x0 PUSH1 0x20 DUP3 ADD SWAP1 POP DUP2 DUP2 SUB PUSH1 0x0 DUP4 ADD MSTORE PUSH2 0x203C DUP2 PUSH2 0x2000 JUMP JUMPDEST SWAP1 POP SWAP2 SWAP1 POP JUMP JUMPDEST PUSH32 0x436F6F7264696E61746F72206E6F742073657400000000000000000000000000 PUSH1 0x0 DUP3 ADD MSTORE POP JUMP JUMPDEST PUSH1 0x0 PUSH2 0x2079 PUSH1 0x13 DUP4 PUSH2 0x1D02 JUMP JUMPDEST SWAP2 POP PUSH2 0x2084 DUP3 PUSH2 0x2043 JUMP JUMPDEST PUSH1 0x20 DUP3 ADD SWAP1 POP SWAP2 SWAP1 POP JUMP JUMPDEST PUSH1 0x0 PUSH1 0x20 DUP3 ADD SWAP1 POP DUP2 DUP2 SUB PUSH1 0x0 DUP4 ADD MSTORE PUSH2 0x20A8 DUP2 PUSH2 0x206C JUMP JUMPDEST SWAP1 POP SWAP2 SWAP1 POP JUMP JUMPDEST PUSH2 0x20B8 DUP2 PUSH2 0x19EF JUMP JUMPDEST DUP3 MSTORE POP POP JUMP JUMPDEST PUSH2 0x20C7 DUP2 PUSH2 0x15DE JUMP JUMPDEST DUP3 MSTORE POP POP JUMP JUMPDEST PUSH2 0x20D6 DUP2 PUSH2 0x1A51 JUMP JUMPDEST DUP3 MSTORE POP POP JUMP JUMPDEST PUSH2 0x20E5 DUP2 PUSH2 0x182B JUMP JUMPDEST DUP3 MSTORE POP POP JUMP JUMPDEST PUSH1 0x0 DUP2 MLOAD SWAP1 POP SWAP2 SWAP1 POP JUMP JUMPDEST PUSH1 0x0 DUP3 DUP3 MSTORE PUSH1 0x20 DUP3 ADD SWAP1 POP SWAP3 SWAP2 POP POP JUMP JUMPDEST PUSH1 0x0 PUSH2 0x2112 DUP3 PUSH2 0x20EB JUMP JUMPDEST PUSH2 0x211C DUP2 DUP6 PUSH2 0x20F6 JUMP JUMPDEST SWAP4 POP PUSH2 0x212C DUP2 DUP6 PUSH1 0x20 DUP7 ADD PUSH2 0x1D13 JUMP JUMPDEST PUSH2 0x2135 DUP2 PUSH2 0x186A JUMP JUMPDEST DUP5 ADD SWAP2 POP POP SWAP3 SWAP2 POP POP JUMP JUMPDEST PUSH1 0x0 PUSH1 0xC0 DUP4 ADD PUSH1 0x0 DUP4 ADD MLOAD PUSH2 0x2158 PUSH1 0x0 DUP7 ADD DUP3 PUSH2 0x20AF JUMP JUMPDEST POP PUSH1 0x20 DUP4 ADD MLOAD PUSH2 0x216B PUSH1 0x20 DUP7 ADD DUP3 PUSH2 0x20BE JUMP JUMPDEST POP PUSH1 0x40 DUP4 ADD MLOAD PUSH2 0x217E PUSH1 0x40 DUP7 ADD DUP3 PUSH2 0x20CD JUMP JUMPDEST POP PUSH1 0x60 DUP4 ADD MLOAD PUSH2 0x2191 PUSH1 0x60 DUP7 ADD DUP3 PUSH2 0x20DC JUMP JUMPDEST POP PUSH1 0x80 DUP4 ADD MLOAD PUSH2 0x21A4 PUSH1 0x80 DUP7 ADD DUP3 PUSH2 0x20DC JUMP JUMPDEST POP PUSH1 0xA0 DUP4 ADD MLOAD DUP5 DUP3 SUB PUSH1 0xA0 DUP7 ADD MSTORE PUSH2 0x21BC DUP3 DUP3 PUSH2 0x2107 JUMP JUMPDEST SWAP2 POP POP DUP1 SWAP2 POP POP SWAP3 SWAP2 POP POP JUMP JUMPDEST PUSH1 0x0 PUSH1 0x20 DUP3 ADD SWAP1 POP DUP2 DUP2 SUB PUSH1 0x0 DUP4 ADD MSTORE PUSH2 0x21E3 DUP2 DUP5 PUSH2 0x2140 JUMP JUMPDEST SWAP1 POP SWAP3 SWAP2 POP POP JUMP JUMPDEST PUSH1 0x0 DUP2 MLOAD SWAP1 POP PUSH2 0x21FA DUP2 PUSH2 0x1749 JUMP JUMPDEST SWAP3 SWAP2 POP POP JUMP JUMPDEST PUSH1 0x0 PUSH1 0x20 DUP3 DUP5 SUB SLT ISZERO PUSH2 0x2216 JUMPI PUSH2 0x2215 PUSH2 0x161C JUMP JUMPDEST JUMPDEST PUSH1 0x0 PUSH2 0x2224 DUP5 DUP3 DUP6 ADD PUSH2 0x21EB JUMP JUMPDEST SWAP2 POP POP SWAP3 SWAP2 POP POP JUMP JUMPDEST PUSH32 0x4E487B7100000000000000000000000000000000000000000000000000000000 PUSH1 0x0 MSTORE PUSH1 0x22 PUSH1 0x4 MSTORE PUSH1 0x24 PUSH1 0x0 REVERT JUMPDEST PUSH1 0x0 PUSH1 0x2 DUP3 DIV SWAP1 POP PUSH1 0x1 DUP3 AND DUP1 PUSH2 0x2274 JUMPI PUSH1 0x7F DUP3 AND SWAP2 POP JUMPDEST PUSH1 0x20 DUP3 LT DUP2 SUB PUSH2 0x2287 JUMPI PUSH2 0x2286 PUSH2 0x222D JUMP JUMPDEST JUMPDEST POP SWAP2 SWAP1 POP JUMP JUMPDEST PUSH1 0x0 DUP2 SWAP1 POP DUP2 PUSH1 0x0 MSTORE PUSH1 0x20 PUSH1 0x0 KECCAK256 SWAP1 POP SWAP2 SWAP1 POP JUMP JUMPDEST PUSH1 0x0 PUSH1 0x20 PUSH1 0x1F DUP4 ADD DIV SWAP1 POP SWAP2 SWAP1 POP JUMP JUMPDEST PUSH1 0x0 DUP3 DUP3 SHL SWAP1 POP SWAP3 SWAP2 POP POP JUMP JUMPDEST PUSH1 0x0 PUSH1 0x8 DUP4 MUL PUSH2 0x22EF PUSH32 0xFFFFFFFFFFFFFFFFFFFFFFFFFFFFFFFFFFFFFFFFFFFFFFFFFFFFFFFFFFFFFFFF DUP3 PUSH2 0x22B2 JUMP JUMPDEST PUSH2 0x22F9 DUP7 DUP4 PUSH2 0x22B2 JUMP JUMPDEST SWAP6 POP DUP1 NOT DUP5 AND SWAP4 POP DUP1 DUP7 AND DUP5 OR SWAP3 POP POP POP SWAP4 SWAP3 POP POP POP JUMP JUMPDEST PUSH1 0x0 PUSH2 0x232C PUSH2 0x2327 PUSH2 0x2322 DUP5 PUSH2 0x15DE JUMP JUMPDEST PUSH2 0x1C50 JUMP JUMPDEST PUSH2 0x15DE JUMP JUMPDEST SWAP1 POP SWAP2 SWAP1 POP JUMP JUMPDEST PUSH1 0x0 DUP2 SWAP1 POP SWAP2 SWAP1 POP JUMP JUMPDEST PUSH2 0x2346 DUP4 PUSH2 0x2311 JUMP JUMPDEST PUSH2 0x235A PUSH2 0x2352 DUP3 PUSH2 0x2333 JUMP JUMPDEST DUP5 DUP5 SLOAD PUSH2 0x22BF JUMP JUMPDEST DUP3 SSTORE POP POP POP POP JUMP JUMPDEST PUSH1 0x0 SWAP1 JUMP JUMPDEST PUSH2 0x236F PUSH2 0x2362 JUMP JUMPDEST PUSH2 0x237A DUP2 DUP5 DUP5 PUSH2 0x233D JUMP JUMPDEST POP POP POP JUMP JUMPDEST JUMPDEST DUP2 DUP2 LT ISZERO PUSH2 0x239E JUMPI PUSH2 0x2393 PUSH1 0x0 DUP3 PUSH2 0x2367 JUMP JUMPDEST PUSH1 0x1 DUP2 ADD SWAP1 POP PUSH2 0x2380 JUMP JUMPDEST POP POP JUMP JUMPDEST PUSH1 0x1F DUP3 GT ISZERO PUSH2 0x23E3 JUMPI PUSH2 0x23B4 DUP2 PUSH2 0x228D JUMP JUMPDEST PUSH2 0x23BD DUP5 PUSH2 0x22A2 JUMP JUMPDEST DUP2 ADD PUSH1 0x20 DUP6 LT ISZERO PUSH2 0x23CC JUMPI DUP2 SWAP1 POP JUMPDEST PUSH2 0x23E0 PUSH2 0x23D8 DUP6 PUSH2 0x22A2 JUMP JUMPDEST DUP4 ADD DUP3 PUSH2 0x237F JUMP JUMPDEST POP POP JUMPDEST POP POP POP JUMP JUMPDEST PUSH1 0x0 DUP3 DUP3 SHR SWAP1 POP SWAP3 SWAP2 POP POP JUMP JUMPDEST PUSH1 0x0 PUSH2 0x2406 PUSH1 0x0 NOT DUP5 PUSH1 0x8 MUL PUSH2 0x23E8 JUMP JUMPDEST NOT DUP1 DUP4 AND SWAP2 POP POP SWAP3 SWAP2 POP POP JUMP JUMPDEST PUSH1 0x0 PUSH2 0x241F DUP4 DUP4 PUSH2 0x23F5 JUMP JUMPDEST SWAP2 POP DUP3 PUSH1 0x2 MUL DUP3 OR SWAP1 POP SWAP3 SWAP2 POP POP JUMP JUMPDEST PUSH2 0x2438 DUP3 PUSH2 0x1CF7 JUMP JUMPDEST PUSH8 0xFFFFFFFFFFFFFFFF DUP2 GT ISZERO PUSH2 0x2451 JUMPI PUSH2 0x2450 PUSH2 0x187B JUMP JUMPDEST JUMPDEST PUSH2 0x245B DUP3 SLOAD PUSH2 0x225C JUMP JUMPDEST PUSH2 0x2466 DUP3 DUP3 DUP6 PUSH2 0x23A2 JUMP JUMPDEST PUSH1 0x0 PUSH1 0x20 SWAP1 POP PUSH1 0x1F DUP4 GT PUSH1 0x1 DUP2 EQ PUSH2 0x2499 JUMPI PUSH1 0x0 DUP5 ISZERO PUSH2 0x2487 JUMPI DUP3 DUP8 ADD MLOAD SWAP1 POP JUMPDEST PUSH2 0x2491 DUP6 DUP3 PUSH2 0x2413 JUMP JUMPDEST DUP7 SSTORE POP PUSH2 0x24F9 JUMP JUMPDEST PUSH1 0x1F NOT DUP5 AND PUSH2 0x24A7 DUP7 PUSH2 0x228D JUMP JUMPDEST PUSH1 0x0 JUMPDEST DUP3 DUP2 LT ISZERO PUSH2 0x24CF JUMPI DUP5 DUP10 ADD MLOAD DUP3 SSTORE PUSH1 0x1 DUP3 ADD SWAP2 POP PUSH1 0x20 DUP6 ADD SWAP5 POP PUSH1 0x20 DUP2 ADD SWAP1 POP PUSH2 0x24AA JUMP JUMPDEST DUP7 DUP4 LT ISZERO PUSH2 0x24EC JUMPI DUP5 DUP10 ADD MLOAD PUSH2 0x24E8 PUSH1 0x1F DUP10 AND DUP3 PUSH2 0x23F5 JUMP JUMPDEST DUP4 SSTORE POP JUMPDEST PUSH1 0x1 PUSH1 0x2 DUP9 MUL ADD DUP9 SSTORE POP POP POP JUMPDEST POP POP POP POP POP POP JUMP JUMPDEST PUSH1 0x0 PUSH1 0x40 DUP3 ADD SWAP1 POP PUSH2 0x2516 PUSH1 0x0 DUP4 ADD DUP6 PUSH2 0x1B30 JUMP JUMPDEST PUSH2 0x2523 PUSH1 0x20 DUP4 ADD DUP5 PUSH2 0x1B30 JUMP JUMPDEST SWAP4 SWAP3 POP POP POP JUMP JUMPDEST PUSH32 0x4D7573742062652070726F706F736564206F776E657200000000000000000000 PUSH1 0x0 DUP3 ADD MSTORE POP JUMP JUMPDEST PUSH1 0x0 PUSH2 0x2560 PUSH1 0x16 DUP4 PUSH2 0x1D02 JUMP JUMPDEST SWAP2 POP PUSH2 0x256B DUP3 PUSH2 0x252A JUMP JUMPDEST PUSH1 0x20 DUP3 ADD SWAP1 POP SWAP2 SWAP1 POP JUMP JUMPDEST PUSH1 0x0 PUSH1 0x20 DUP3 ADD SWAP1 POP DUP2 DUP2 SUB PUSH1 0x0 DUP4 ADD MSTORE PUSH2 0x258F DUP2 PUSH2 0x2553 JUMP JUMPDEST SWAP1 POP SWAP2 SWAP1 POP JUMP JUMPDEST PUSH1 0x0 PUSH1 0x60 DUP3 ADD SWAP1 POP PUSH2 0x25AB PUSH1 0x0 DUP4 ADD DUP7 PUSH2 0x1B30 JUMP JUMPDEST PUSH2 0x25B8 PUSH1 0x20 DUP4 ADD DUP6 PUSH2 0x1B30 JUMP JUMPDEST PUSH2 0x25C5 PUSH1 0x40 DUP4 ADD DUP5 PUSH2 0x1B30 JUMP JUMPDEST SWAP5 SWAP4 POP POP POP POP JUMP JUMPDEST PUSH32 0x4F6E6C792063616C6C61626C65206279206F776E657200000000000000000000 PUSH1 0x0 DUP3 ADD MSTORE POP JUMP JUMPDEST PUSH1 0x0 PUSH2 0x2603 PUSH1 0x16 DUP4 PUSH2 0x1D02 JUMP JUMPDEST SWAP2 POP PUSH2 0x260E DUP3 PUSH2 0x25CD JUMP JUMPDEST PUSH1 0x20 DUP3 ADD SWAP1 POP SWAP2 SWAP1 POP JUMP JUMPDEST PUSH1 0x0 PUSH1 0x20 DUP3 ADD SWAP1 POP DUP2 DUP2 SUB PUSH1 0x0 DUP4 ADD MSTORE PUSH2 0x2632 DUP2 PUSH2 0x25F6 JUMP JUMPDEST SWAP1 POP SWAP2 SWAP1 POP JUMP JUMPDEST PUSH2 0x2642 DUP2 PUSH2 0x1BD4 JUMP JUMPDEST DUP3 MSTORE POP POP JUMP JUMPDEST PUSH1 0x20 DUP3 ADD PUSH1 0x0 DUP3 ADD MLOAD PUSH2 0x265E PUSH1 0x0 DUP6 ADD DUP3 PUSH2 0x2639 JUMP JUMPDEST POP POP POP POP JUMP JUMPDEST PUSH1 0x0 PUSH1 0x20 DUP3 ADD SWAP1 POP PUSH2 0x2679 PUSH1 0x0 DUP4 ADD DUP5 PUSH2 0x2648 JUMP JUMPDEST SWAP3 SWAP2 POP POP JUMP JUMPDEST PUSH32 0x556E6B6E6F776E20726571756573740000000000000000000000000000000000 PUSH1 0x0 DUP3 ADD MSTORE POP JUMP JUMPDEST PUSH1 0x0 PUSH2 0x26B5 PUSH1 0xF DUP4 PUSH2 0x1D02 JUMP JUMPDEST SWAP2 POP PUSH2 0x26C0 DUP3 PUSH2 0x267F JUMP JUMPDEST PUSH1 0x20 DUP3 ADD SWAP1 POP SWAP2 SWAP1 POP JUMP JUMPDEST PUSH1 0x0 PUSH1 0x20 DUP3 ADD SWAP1 POP DUP2 DUP2 SUB PUSH1 0x0 DUP4 ADD MSTORE PUSH2 0x26E4 DUP2 PUSH2 0x26A8 JUMP JUMPDEST SWAP1 POP SWAP2 SWAP1 POP JUMP JUMPDEST PUSH32 0x4E487B7100000000000000000000000000000000000000000000000000000000 PUSH1 0x0 MSTORE PUSH1 0x32 PUSH1 0x4 MSTORE PUSH1 0x24 PUSH1 0x0 REVERT JUMPDEST PUSH32 0x4E487B7100000000000000000000000000000000000000000000000000000000 PUSH1 0x0 MSTORE PUSH1 0x12 PUSH1 0x4 MSTORE PUSH1 0x24 PUSH1 0x0 REVERT JUMPDEST PUSH1 0x0 PUSH2 0x2754 DUP3 PUSH2 0x15DE JUMP JUMPDEST SWAP2 POP PUSH2 0x275F DUP4 PUSH2 0x15DE JUMP JUMPDEST SWAP3 POP DUP3 PUSH2 0x276F JUMPI PUSH2 0x276E PUSH2 0x271A JUMP JUMPDEST JUMPDEST DUP3 DUP3 MOD SWAP1 POP SWAP3 SWAP2 POP POP JUMP JUMPDEST PUSH32 0x4E487B7100000000000000000000000000000000000000000000000000000000 PUSH1 0x0 MSTORE PUSH1 0x11 PUSH1 0x4 MSTORE PUSH1 0x24 PUSH1 0x0 REVERT JUMPDEST PUSH1 0x0 PUSH2 0x27B4 DUP3 PUSH2 0x15DE JUMP JUMPDEST SWAP2 POP PUSH2 0x27BF DUP4 PUSH2 0x15DE JUMP JUMPDEST SWAP3 POP DUP3 DUP3 ADD SWAP1 POP DUP1 DUP3 GT ISZERO PUSH2 0x27D7 JUMPI PUSH2 0x27D6 PUSH2 0x277A JUMP JUMPDEST JUMPDEST SWAP3 SWAP2 POP POP JUMP JUMPDEST PUSH1 0x0 PUSH2 0x27E8 DUP3 PUSH2 0x1CF7 JUMP JUMPDEST PUSH2 0x27F2 DUP2 DUP6 PUSH2 0x1EB6 JUMP JUMPDEST SWAP4 POP PUSH2 0x2802 DUP2 DUP6 PUSH1 0x20 DUP7 ADD PUSH2 0x1D13 JUMP JUMPDEST DUP1 DUP5 ADD SWAP2 POP POP SWAP3 SWAP2 POP POP JUMP JUMPDEST PUSH1 0x0 PUSH2 0x281A DUP3 DUP5 PUSH2 0x27DD JUMP JUMPDEST SWAP2 POP DUP2 SWAP1 POP SWAP3 SWAP2 POP POP JUMP JUMPDEST PUSH1 0x0 PUSH1 0x60 DUP3 ADD SWAP1 POP PUSH2 0x283A PUSH1 0x0 DUP4 ADD DUP7 PUSH2 0x15E8 JUMP JUMPDEST PUSH2 0x2847 PUSH1 0x20 DUP4 ADD DUP6 PUSH2 0x15E8 JUMP JUMPDEST PUSH2 0x2854 PUSH1 0x40 DUP4 ADD DUP5 PUSH2 0x15E8 JUMP JUMPDEST SWAP5 SWAP4 POP POP POP POP JUMP JUMPDEST PUSH32 0x43616E6E6F74207472616E7366657220746F2073656C66000000000000000000 PUSH1 0x0 DUP3 ADD MSTORE POP JUMP JUMPDEST PUSH1 0x0 PUSH2 0x2892 PUSH1 0x17 DUP4 PUSH2 0x1D02 JUMP JUMPDEST SWAP2 POP PUSH2 0x289D DUP3 PUSH2 0x285C JUMP JUMPDEST PUSH1 0x20 DUP3 ADD SWAP1 POP SWAP2 SWAP1 POP JUMP JUMPDEST PUSH1 0x0 PUSH1 0x20 DUP3 ADD SWAP1 POP DUP2 DUP2 SUB PUSH1 0x0 DUP4 ADD MSTORE PUSH2 0x28C1 DUP2 PUSH2 0x2885 JUMP JUMPDEST SWAP1 POP SWAP2 SWAP1 POP JUMP INVALID LOG2 PUSH5 0x6970667358 0x22 SLT KECCAK256 PUSH30 0x1A90DBF7F827225E47E322A4C71CEEC8F0BFE8671DB2664E92D1D9714F53 0xCF PUSH5 0x736F6C6343 STOP ADDMOD EQ STOP CALLER "},"methodIdentifiers":{"acceptOwnership()":"79ba5097","callbackGasLimit()":"24f74697","getLoot(string)":"91a52089","keyHash()":"61728f39","numWords()":"7ccfd7fc","owner()":"8da5cb5b","pending(uint256)":"af6e6238","rawFulfillRandomWords(uint256,uint256[])":"1fe543e3","requestConfirmations()":"b0fb162f","requestIdByMatch(string)":"3eed3f94","requestLoot(string,address)":"0a051118","s_vrfCoordinator()":"9eccacf6","setCoordinator(address)":"8ea98117","setVrfConfig(uint256,bytes32,uint32,uint16,uint32)":"58ea9f7a","subscriptionId()":"09c1ba2e","transferOwnership(address)":"f2fde38b"}}}}}