{
  "_format": "hh-sol-artifact-1",
  "contractName": "LootChest",
  "sourceName": "contracts/LootChest.sol",
  "abi": [
    {
      "inputs": [
        {
          "internalType": "address",
          "name": "coordinatorAddress",
          "type": "address"
        },
        {
          "internalType": "uint256",
          "name": "_subscriptionId",
          "type": "uint256"
        },
        {
          "internalType": "bytes32",
          "name": "_keyHash",
          "type": "bytes32"
        },
        {
          "internalType": "uint32",
          "name": "_callbackGasLimit",
          "type": "uint32"
        },
        {
          "internalType": "uint16",
          "name": "_requestConfirmations",
          "type": "uint16"
        },
        {
          "internalType": "uint32",
          "name": "_numWords",
          "type": "uint32"
        }
      ],
      "stateMutability": "nonpayable",
      "type": "constructor"
    },
    {
      "inputs": [
        {
          "internalType": "address",
          "name": "have",
          "type": "address"
        },
        {
          "internalType": "address",
          "name": "want",
          "type": "address"
        }
      ],
      "name": "OnlyCoordinatorCanFulfill",
      "type": "error"
    },
    {
      "inputs": [
        {
          "internalType": "address",
          "name": "have",
          "type": "address"
        },
        {
          "internalType": "address",
          "name": "owner",
          "type": "address"
        },
        {
          "internalType": "address",
          "name": "coordinator",
          "type": "address"
        }
      ],
      "name": "OnlyOwnerOrCoordinator",
      "type": "error"
    },
    {
      "inputs": [],
      "name": "ZeroAddress",
      "type": "error"
    },
    {
      "anonymous": false,
      "inputs": [
        {
          "indexed": false,
          "internalType": "address",
          "name": "vrfCoordinator",
          "type": "address"
        }
      ],
      "name": "CoordinatorSet",
      "type": "event"
    },
    {
      "anonymous": false,
      "inputs": [
        {
          "indexed": true,
          "internalType": "string",
          "name": "matchId",
          "type": "string"
        },
        {
          "indexed": true,
          "internalType": "address",
          "name": "winner",
          "type": "address"
        },
        {
          "indexed": false,
          "internalType": "uint256",
          "name": "itemId",
          "type": "uint256"
        },
        {
          "indexed": false,
          "internalType": "uint256",
          "name": "randomness",
          "type": "uint256"
        },
        {
          "indexed": false,
          "internalType": "uint256",
          "name": "timestamp",
          "type": "uint256"
        }
      ],
      "name": "LootAwarded",
      "type": "event"
    },
    {
      "anonymous": false,
      "inputs": [
        {
          "indexed": true,
          "internalType": "string",
          "name": "matchId",
          "type": "string"
        },
        {
          "indexed": true,
          "internalType": "address",
          "name": "winner",
          "type": "address"
        },
        {
          "indexed": false,
          "internalType": "uint256",
          "name": "itemId",
          "type": "uint256"
        }
      ],
      "name": "LootClaimed",
      "type": "event"
    },
    {
      "anonymous": false,
      "inputs": [
        {
          "indexed": true,
          "internalType": "uint256",
          "name": "requestId",
          "type": "uint256"
        },
        {
          "indexed": true,
          "internalType": "string",
          "name": "matchId",
          "type": "string"
        },
        {
          "indexed": true,
          "internalType": "address",
          "name": "winner",
          "type": "address"
        }
      ],
      "name": "LootRequested",
      "type": "event"
    },
    {
      "anonymous": false,
      "inputs": [
        {
          "indexed": true,
          "internalType": "address",
          "name": "from",
          "type": "address"
        },
        {
          "indexed": true,
          "internalType": "address",
          "name": "to",
          "type": "address"
        }
      ],
      "name": "OwnershipTransferRequested",
      "type": "event"
    },
    {
      "anonymous": false,
      "inputs": [
        {
          "indexed": true,
          "internalType": "address",
          "name": "from",
          "type": "address"
        },
        {
          "indexed": true,
          "internalType": "address",
          "name": "to",
          "type": "address"
        }
      ],
      "name": "OwnershipTransferred",
      "type": "event"
    },
    {
      "inputs": [],
      "name": "acceptOwnership",
      "outputs": [],
      "stateMutability": "nonpayable",
      "type": "function"
    },
    {
      "inputs": [],
      "name": "callbackGasLimit",
      "outputs": [
        {
          "internalType": "uint32",
          "name": "",
          "type": "uint32"
        }
      ],
      "stateMutability": "view",
      "type": "function"
    },
    {
      "inputs": [
        {
          "internalType": "string",
          "name": "matchId",
          "type": "string"
        }
      ],
      "name": "claimLoot",
      "outputs": [],
      "stateMutability": "nonpayable",
      "type": "function"
    },
    {
      "inputs": [
        {
          "internalType": "string",
          "name": "matchId",
          "type": "string"
        }
      ],
      "name": "getLoot",
      "outputs": [
        {
          "internalType": "bool",
          "name": "fulfilled",
          "type": "bool"
        },
        {
          "internalType": "bool",
          "name": "claimed",
          "type": "bool"
        },
        {
          "internalType": "address",
          "name": "winner",
          "type": "address"
        },
        {
          "internalType": "uint256",
          "name": "itemId",
          "type": "uint256"
        },
        {
          "internalType": "uint256",
          "name": "randomness",
          "type": "uint256"
        },
        {
          "internalType": "uint256",
          "name": "timestamp",
          "type": "uint256"
        },
        {
          "internalType": "uint256",
          "name": "requestId",
          "type": "uint256"
        }
      ],
      "stateMutability": "view",
      "type": "function"
    },
    {
      "inputs": [],
      "name": "keyHash",
      "outputs": [
        {
          "internalType": "bytes32",
          "name": "",
          "type": "bytes32"
        }
      ],
      "stateMutability": "view",
      "type": "function"
    },
    {
      "inputs": [],
      "name": "numWords",
      "outputs": [
        {
          "internalType": "uint32",
          "name": "",
          "type": "uint32"
        }
      ],
      "stateMutability": "view",
      "type": "function"
    },
    {
      "inputs": [],
      "name": "owner",
      "outputs": [
        {
          "internalType": "address",
          "name": "",
          "type": "address"
        }
      ],
      "stateMutability": "view",
      "type": "function"
    },
    {
      "inputs": [
        {
          "internalType": "uint256",
          "name": "",
          "type": "uint256"
        }
      ],
      "name": "pending",
      "outputs": [
        {
          "internalType": "string",
          "name": "matchId",
          "type": "string"
        },
        {
          "internalType": "address",
          "name": "winner",
          "type": "address"
        },
        {
          "internalType": "bool",
          "name": "exists",
          "type": "bool"
        }
      ],
      "stateMutability": "view",
      "type": "function"
    },
    {
      "inputs": [
        {
          "internalType": "uint256",
          "name": "requestId",
          "type": "uint256"
        },
        {
          "internalType": "uint256[]",
          "name": "randomWords",
          "type": "uint256[]"
        }
      ],
      "name": "rawFulfillRandomWords",
      "outputs": [],
      "stateMutability": "nonpayable",
      "type": "function"
    },
    {
      "inputs": [],
      "name": "requestConfirmations",
      "outputs": [
        {
          "internalType": "uint16",
          "name": "",
          "type": "uint16"
        }
      ],
      "stateMutability": "view",
      "type": "function"
    },
    {
      "inputs": [
        {
          "internalType": "string",
          "name": "",
          "type": "string"
        }
      ],
      "name": "requestIdByMatch",
      "outputs": [
        {
          "internalType": "uint256",
          "name": "",
          "type": "uint256"
        }
      ],
      "stateMutability": "view",
      "type": "function"
    },
    {
      "inputs": [
        {
          "internalType": "string",
          "name": "matchId",
          "type": "string"
        },
        {
          "internalType": "address",
          "name": "winner",
          "type": "address"
        }
      ],
      "name": "requestLoot",
      "outputs": [
        {
          "internalType": "uint256",
          "name": "requestId",
          "type": "uint256"
        }
      ],
      "stateMutability": "nonpayable",
      "type": "function"
    },
    {
      "inputs": [],
      "name": "s_vrfCoordinator",
      "outputs": [
        {
          "internalType": "contract IVRFCoordinatorV2Plus",
          "name": "",
          "type": "address"
        }
      ],
      "stateMutability": "view",
      "type": "function"
    },
    {
      "inputs": [
        {
          "internalType": "address",
          "name": "_vrfCoordinator",
          "type": "address"
        }
      ],
      "name": "setCoordinator",
      "outputs": [],
      "stateMutability": "nonpayable",
      "type": "function"
    },
    {
      "inputs": [
        {
          "internalType": "uint256",
          "name": "_subscriptionId",
          "type": "uint256"
        },
        {
          "internalType": "bytes32",
          "name": "_keyHash",
          "type": "bytes32"
        },
        {
          "internalType": "uint32",
          "name": "_callbackGasLimit",
          "type": "uint32"
        },
        {
          "internalType": "uint16",
          "name": "_requestConfirmations",
          "type": "uint16"
        },
        {
          "internalType": "uint32",
          "name": "_numWords",
          "type": "uint32"
        }
      ],
      "name": "setVrfConfig",
      "outputs": [],
      "stateMutability": "nonpayable",
      "type": "function"
    },
    {
      "inputs": [],
      "name": "subscriptionId",
      "outputs": [
        {
          "internalType": "uint256",
          "name": "",
          "type": "uint256"
        }
      ],
      "stateMutability": "view",
      "type": "function"
    },
    {
      "inputs": [
        {
          "internalType": "address",
          "name": "to",
          "type": "address"
        }
      ],
      "name": "transferOwnership",
      "outputs": [],
      "stateMutability": "nonpayable",
      "type": "function"
    }
  ],
  "bytecode": "0x60806040523480156200001157600080fd5b50604051620034183803806200341883398181016040528101906200003791906200055a565b85338060008073ffffffffffffffffffffffffffffffffffffffff168273ffffffffffffffffffffffffffffffffffffffff1603620000ad576040517f08c379a0000000000000000000000000000000000000000000000000000000008152600401620000a49062000657565b60405180910390fd5b816000806101000a81548173ffffffffffffffffffffffffffffffffffffffff021916908373ffffffffffffffffffffffffffffffffffffffff160217905550600073ffffffffffffffffffffffffffffffffffffffff168173ffffffffffffffffffffffffffffffffffffffff161462000134576200013381620002cb60201b60201c565b5b505050600073ffffffffffffffffffffffffffffffffffffffff168173ffffffffffffffffffffffffffffffffffffffff16036200019e576040517fd92e233d00000000000000000000000000000000000000000000000000000000815260040160405180910390fd5b80600260006101000a81548173ffffffffffffffffffffffffffffffffffffffff021916908373ffffffffffffffffffffffffffffffffffffffff16021790555050600073ffffffffffffffffffffffffffffffffffffffff168673ffffffffffffffffffffffffffffffffffffffff160362000252576040517f08c379a00000000000000000000000000000000000000000000000000000000081526004016200024990620006c9565b60405180910390fd5b846003819055508360048190555082600560006101000a81548163ffffffff021916908363ffffffff16021790555081600560046101000a81548161ffff021916908361ffff16021790555080600560066101000a81548163ffffffff021916908363ffffffff1602179055505050505050506200075d565b3373ffffffffffffffffffffffffffffffffffffffff168173ffffffffffffffffffffffffffffffffffffffff16036200033c576040517f08c379a000000000000000000000000000000000000000000000000000000000815260040162000333906200073b565b60405180910390fd5b80600160006101000a81548173ffffffffffffffffffffffffffffffffffffffff021916908373ffffffffffffffffffffffffffffffffffffffff1602179055508073ffffffffffffffffffffffffffffffffffffffff1660008054906101000a900473ffffffffffffffffffffffffffffffffffffffff1673ffffffffffffffffffffffffffffffffffffffff167fed8889f560326eb138920d842192f0eb3dd22b4f139c87a2c57538e05bae127860405160405180910390a350565b600080fd5b600073ffffffffffffffffffffffffffffffffffffffff82169050919050565b60006200042c82620003ff565b9050919050565b6200043e816200041f565b81146200044a57600080fd5b50565b6000815190506200045e8162000433565b92915050565b6000819050919050565b620004798162000464565b81146200048557600080fd5b50565b60008151905062000499816200046e565b92915050565b6000819050919050565b620004b4816200049f565b8114620004c057600080fd5b50565b600081519050620004d481620004a9565b92915050565b600063ffffffff82169050919050565b620004f581620004da565b81146200050157600080fd5b50565b6000815190506200051581620004ea565b92915050565b600061ffff82169050919050565b62000534816200051b565b81146200054057600080fd5b50565b600081519050620005548162000529565b92915050565b60008060008060008060c087890312156200057a5762000579620003fa565b5b60006200058a89828a016200044d565b96505060206200059d89828a0162000488565b9550506040620005b089828a01620004c3565b9450506060620005c389828a0162000504565b9350506080620005d689828a0162000543565b92505060a0620005e989828a0162000504565b9150509295509295509295565b600082825260208201905092915050565b7f43616e6e6f7420736574206f776e657220746f207a65726f0000000000000000600082015250565b60006200063f601883620005f6565b91506200064c8262000607565b602082019050919050565b60006020820190508181036000830152620006728162000630565b9050919050565b7f496e76616c696420636f6f7264696e61746f7200000000000000000000000000600082015250565b6000620006b1601383620005f6565b9150620006be8262000679565b602082019050919050565b60006020820190508181036000830152620006e481620006a2565b9050919050565b7f43616e6e6f74207472616e7366657220746f2073656c66000000000000000000600082015250565b600062000723601783620005f6565b91506200073082620006eb565b602082019050919050565b60006020820190508181036000830152620007568162000714565b9050919050565b612cab806200076d6000396000f3fe608060405234801561001057600080fd5b506004361061010b5760003560e01c80637ccfd7fc116100a25780639990d229116100715780639990d2291461029a5780639eccacf6146102b6578063af6e6238146102d4578063b0fb162f14610306578063f2fde38b146103245761010b565b80637ccfd7fc1461020c5780638da5cb5b1461022a5780638ea981171461024857806391a52089146102645761010b565b80633eed3f94116100de5780633eed3f941461019857806358ea9f7a146101c857806361728f39146101e457806379ba5097146102025761010b565b806309c1ba2e146101105780630a0511181461012e5780631fe543e31461015e57806324f746971461017a575b600080fd5b610118610340565b6040516101259190611852565b60405180910390f35b61014860048036038101906101439190611944565b610346565b6040516101559190611852565b60405180910390f35b61017860048036038101906101739190611a26565b61084b565b005b610182610911565b60405161018f9190611aa5565b60405180910390f35b6101b260048036038101906101ad9190611c01565b610927565b6040516101bf9190611852565b60405180910390f35b6101e260048036038101906101dd9190611ce6565b610955565b005b6101ec6109d1565b6040516101f99190611d70565b60405180910390f35b61020a6109d7565b005b610214610b6c565b6040516102219190611aa5565b60405180910390f35b610232610b82565b60405161023f9190611d9a565b60405180910390f35b610262600480360381019061025d9190611db5565b610bab565b005b61027e60048036038101906102799190611de2565b610d8c565b6040516102919796959493929190611e4a565b60405180910390f35b6102b460048036038101906102af9190611de2565b610ecf565b005b6102be6110b4565b6040516102cb9190611f18565b60405180910390f35b6102ee60048036038101906102e99190611f33565b6110da565b6040516102fd93929190611fdf565b60405180910390f35b61030e6111b9565b60405161031b919061202c565b60405180910390f35b61033e60048036038101906103399190611db5565b6111cd565b005b60035481565b60006103506111e1565b60008484905011610396576040517f08c379a000000000000000000000000000000000000000000000000000000000815260040161038d90612093565b60405180910390fd5b600073ffffffffffffffffffffffffffffffffffffffff168273ffffffffffffffffffffffffffffffffffffffff1603610405576040517f08c379a00000000000000000000000000000000000000000000000000000000081526004016103fc906120ff565b60405180910390fd5b60006007858560405161041992919061214f565b90815260200160405180910390205414610468576040517f08c379a000000000000000000000000000000000000000000000000000000000815260040161045f906121b4565b60405180910390fd5b6000600354036104ad576040517f08c379a00000000000000000000000000000000000000000000000000000000081526004016104a490612220565b60405180910390fd5b6000801b600454036104f4576040517f08c379a00000000000000000000000000000000000000000000000000000000081526004016104eb9061228c565b60405180910390fd5b600073ffffffffffffffffffffffffffffffffffffffff16600260009054906101000a900473ffffffffffffffffffffffffffffffffffffffff1673ffffffffffffffffffffffffffffffffffffffff1603610585576040517f08c379a000000000000000000000000000000000000000000000000000000000815260040161057c906122f8565b60405180910390fd5b60006040518060c0016040528060045481526020016003548152602001600560049054906101000a900461ffff1661ffff168152602001600560009054906101000a900463ffffffff1663ffffffff168152602001600560069054906101000a900463ffffffff1663ffffffff168152602001610612604051806020016040528060001515815250611271565b8152509050600260009054906101000a900473ffffffffffffffffffffffffffffffffffffffff1673ffffffffffffffffffffffffffffffffffffffff16639b1c385e826040518263ffffffff1660e01b81526004016106729190612432565b6020604051808303816000875af1158015610691573d6000803e3d6000fd5b505050506040513d601f19601f820116820180604052508101906106b59190612469565b9150604051806060016040528086868080601f016020809104026020016040519081016040528093929190818152602001838380828437600081840152601f19601f8201169050808301925050505050505081526020018473ffffffffffffffffffffffffffffffffffffffff168152602001600115158152506006600084815260200190815260200160002060008201518160000190816107579190612698565b5060208201518160010160006101000a81548173ffffffffffffffffffffffffffffffffffffffff021916908373ffffffffffffffffffffffffffffffffffffffff16021790555060408201518160010160146101000a81548160ff02191690831515021790555090505081600786866040516107d592919061214f565b9081526020016040518091039020819055508273ffffffffffffffffffffffffffffffffffffffff16858560405161080e92919061214f565b6040518091039020837f515c51446e033867e77a65a00c6c344d76fa4a3375b158093a78f728ad9d043860405160405180910390a4509392505050565b600260009054906101000a900473ffffffffffffffffffffffffffffffffffffffff1673ffffffffffffffffffffffffffffffffffffffff163373ffffffffffffffffffffffffffffffffffffffff16146109015733600260009054906101000a900473ffffffffffffffffffffffffffffffffffffffff166040517f1cf993f40000000000000000000000000000000000000000000000000000000081526004016108f892919061276a565b60405180910390fd5b61090c838383611309565b505050565b600560009054906101000a900463ffffffff1681565b6007818051602081018201805184825260208301602085012081835280955050505050506000915090505481565b61095d6111e1565b846003819055508360048190555082600560006101000a81548163ffffffff021916908363ffffffff16021790555081600560046101000a81548161ffff021916908361ffff16021790555080600560066101000a81548163ffffffff021916908363ffffffff1602179055505050505050565b60045481565b600160009054906101000a900473ffffffffffffffffffffffffffffffffffffffff1673ffffffffffffffffffffffffffffffffffffffff163373ffffffffffffffffffffffffffffffffffffffff1614610a67576040517f08c379a0000000000000000000000000000000000000000000000000000000008152600401610a5e906127df565b60405180910390fd5b60008060009054906101000a900473ffffffffffffffffffffffffffffffffffffffff169050336000806101000a81548173ffffffffffffffffffffffffffffffffffffffff021916908373ffffffffffffffffffffffffffffffffffffffff1602179055506000600160006101000a81548173ffffffffffffffffffffffffffffffffffffffff021916908373ffffffffffffffffffffffffffffffffffffffff1602179055503373ffffffffffffffffffffffffffffffffffffffff168173ffffffffffffffffffffffffffffffffffffffff167f8be0079c531659141344cd1fd0a4f28419497f9722a3daafe3b4186f6b6457e060405160405180910390a350565b600560069054906101000a900463ffffffff1681565b60008060009054906101000a900473ffffffffffffffffffffffffffffffffffffffff16905090565b610bb3610b82565b73ffffffffffffffffffffffffffffffffffffffff163373ffffffffffffffffffffffffffffffffffffffff1614158015610c3c5750600260009054906101000a900473ffffffffffffffffffffffffffffffffffffffff1673ffffffffffffffffffffffffffffffffffffffff163373ffffffffffffffffffffffffffffffffffffffff1614155b15610cab5733610c4a610b82565b600260009054906101000a900473ffffffffffffffffffffffffffffffffffffffff166040517f061db9c1000000000000000000000000000000000000000000000000000000008152600401610ca2939291906127ff565b60405180910390fd5b600073ffffffffffffffffffffffffffffffffffffffff168173ffffffffffffffffffffffffffffffffffffffff1603610d11576040517fd92e233d00000000000000000000000000000000000000000000000000000000815260040160405180910390fd5b80600260006101000a81548173ffffffffffffffffffffffffffffffffffffffff021916908373ffffffffffffffffffffffffffffffffffffffff1602179055507fd1a6a14209a385a964d036e404cb5cfb71f4000cdb03c9366292430787261be681604051610d819190611d9a565b60405180910390a150565b60008060008060008060008060088a8a604051610daa92919061214f565b90815260200160405180910390206040518060c00160405290816000820160009054906101000a900460ff161515151581526020016000820160019054906101000a900460ff161515151581526020016000820160029054906101000a900473ffffffffffffffffffffffffffffffffffffffff1673ffffffffffffffffffffffffffffffffffffffff1673ffffffffffffffffffffffffffffffffffffffff16815260200160018201548152602001600282015481526020016003820154815250509050600060078b8b604051610e8392919061214f565b9081526020016040518091039020549050816000015182602001518360400151846060015185608001518660a00151869850985098509850985098509850505092959891949750929550565b600060088383604051610ee392919061214f565b908152602001604051809103902090508060000160009054906101000a900460ff16610f44576040517f08c379a0000000000000000000000000000000000000000000000000000000008152600401610f3b90612882565b60405180910390fd5b8060000160019054906101000a900460ff1615610f96576040517f08c379a0000000000000000000000000000000000000000000000000000000008152600401610f8d906128ee565b60405180910390fd5b8060000160029054906101000a900473ffffffffffffffffffffffffffffffffffffffff1673ffffffffffffffffffffffffffffffffffffffff163373ffffffffffffffffffffffffffffffffffffffff1614611028576040517f08c379a000000000000000000000000000000000000000000000000000000000815260040161101f9061295a565b60405180910390fd5b60018160000160016101000a81548160ff0219169083151502179055503373ffffffffffffffffffffffffffffffffffffffff16838360405161106c92919061214f565b60405180910390207f1784472069395660ac513dd5cf72509f0785071f4ad259ed7f43c91a6dd7861983600101546040516110a79190611852565b60405180910390a3505050565b600260009054906101000a900473ffffffffffffffffffffffffffffffffffffffff1681565b60066020528060005260406000206000915090508060000180546110fd906124c5565b80601f0160208091040260200160405190810160405280929190818152602001828054611129906124c5565b80156111765780601f1061114b57610100808354040283529160200191611176565b820191906000526020600020905b81548152906001019060200180831161115957829003601f168201915b5050505050908060010160009054906101000a900473ffffffffffffffffffffffffffffffffffffffff16908060010160149054906101000a900460ff16905083565b600560049054906101000a900461ffff1681565b6111d56111e1565b6111de816116b0565b50565b60008054906101000a900473ffffffffffffffffffffffffffffffffffffffff1673ffffffffffffffffffffffffffffffffffffffff163373ffffffffffffffffffffffffffffffffffffffff161461126f576040517f08c379a0000000000000000000000000000000000000000000000000000000008152600401611266906129c6565b60405180910390fd5b565b60607f92fd13387c7fe7befbc38d303d6468778fb9731bc4583f17d92989c6fcfdeaaa826040516024016112a59190612a11565b604051602081830303815290604052907bffffffffffffffffffffffffffffffffffffffffffffffffffffffff19166020820180517bffffffffffffffffffffffffffffffffffffffffffffffffffffffff83818316178352505050509050919050565b600060066000858152602001908152602001600020604051806060016040529081600082018054611339906124c5565b80601f0160208091040260200160405190810160405280929190818152602001828054611365906124c5565b80156113b25780601f10611387576101008083540402835291602001916113b2565b820191906000526020600020905b81548152906001019060200180831161139557829003601f168201915b505050505081526020016001820160009054906101000a900473ffffffffffffffffffffffffffffffffffffffff1673ffffffffffffffffffffffffffffffffffffffff1673ffffffffffffffffffffffffffffffffffffffff1681526020016001820160149054906101000a900460ff16151515158152505090508060400151611472576040517f08c379a000000000000000000000000000000000000000000000000000000000815260040161146990612a78565b60405180910390fd5b60008084849050116114855760006114a1565b8383600081811061149957611498612a98565b5b905060200201355b9050600060016005836114b49190612af6565b6114be9190612b56565b90506040518060c00160405280600115158152602001600015158152602001846020015173ffffffffffffffffffffffffffffffffffffffff16815260200182815260200183815260200142815250600884600001516040516115219190612bbb565b908152602001604051809103902060008201518160000160006101000a81548160ff02191690831515021790555060208201518160000160016101000a81548160ff02191690831515021790555060408201518160000160026101000a81548173ffffffffffffffffffffffffffffffffffffffff021916908373ffffffffffffffffffffffffffffffffffffffff160217905550606082015181600101556080820151816002015560a0820151816003015590505060066000878152602001908152602001600020600080820160006115fb91906117dc565b6001820160006101000a81549073ffffffffffffffffffffffffffffffffffffffff02191690556001820160146101000a81549060ff02191690555050826020015173ffffffffffffffffffffffffffffffffffffffff1683600001516040516116659190612bbb565b60405180910390207f0369e6cbd91e8f226d4de16bfd9dfbecc8c2c72fd6044d4bdb9bb7ea542e3d1f8385426040516116a093929190612bd2565b60405180910390a3505050505050565b3373ffffffffffffffffffffffffffffffffffffffff168173ffffffffffffffffffffffffffffffffffffffff160361171e576040517f08c379a000000000000000000000000000000000000000000000000000000000815260040161171590612c55565b60405180910390fd5b80600160006101000a81548173ffffffffffffffffffffffffffffffffffffffff021916908373ffffffffffffffffffffffffffffffffffffffff1602179055508073ffffffffffffffffffffffffffffffffffffffff1660008054906101000a900473ffffffffffffffffffffffffffffffffffffffff1673ffffffffffffffffffffffffffffffffffffffff167fed8889f560326eb138920d842192f0eb3dd22b4f139c87a2c57538e05bae127860405160405180910390a350565b5080546117e8906124c5565b6000825580601f106117fa5750611819565b601f016020900490600052602060002090810190611818919061181c565b5b50565b5b8082111561183557600081600090555060010161181d565b5090565b6000819050919050565b61184c81611839565b82525050565b60006020820190506118676000830184611843565b92915050565b6000604051905090565b600080fd5b600080fd5b600080fd5b600080fd5b600080fd5b60008083601f8401126118a6576118a5611881565b5b8235905067ffffffffffffffff8111156118c3576118c2611886565b5b6020830191508360018202830111156118df576118de61188b565b5b9250929050565b600073ffffffffffffffffffffffffffffffffffffffff82169050919050565b6000611911826118e6565b9050919050565b61192181611906565b811461192c57600080fd5b50565b60008135905061193e81611918565b92915050565b60008060006040848603121561195d5761195c611877565b5b600084013567ffffffffffffffff81111561197b5761197a61187c565b5b61198786828701611890565b9350935050602061199a8682870161192f565b9150509250925092565b6119ad81611839565b81146119b857600080fd5b50565b6000813590506119ca816119a4565b92915050565b60008083601f8401126119e6576119e5611881565b5b8235905067ffffffffffffffff811115611a0357611a02611886565b5b602083019150836020820283011115611a1f57611a1e61188b565b5b9250929050565b600080600060408486031215611a3f57611a3e611877565b5b6000611a4d868287016119bb565b935050602084013567ffffffffffffffff811115611a6e57611a6d61187c565b5b611a7a868287016119d0565b92509250509250925092565b600063ffffffff82169050919050565b611a9f81611a86565b82525050565b6000602082019050611aba6000830184611a96565b92915050565b600080fd5b6000601f19601f8301169050919050565b7f4e487b7100000000000000000000000000000000000000000000000000000000600052604160045260246000fd5b611b0e82611ac5565b810181811067ffffffffffffffff82111715611b2d57611b2c611ad6565b5b80604052505050565b6000611b4061186d565b9050611b4c8282611b05565b919050565b600067ffffffffffffffff821115611b6c57611b6b611ad6565b5b611b7582611ac5565b9050602081019050919050565b82818337600083830152505050565b6000611ba4611b9f84611b51565b611b36565b905082815260208101848484011115611bc057611bbf611ac0565b5b611bcb848285611b82565b509392505050565b600082601f830112611be857611be7611881565b5b8135611bf8848260208601611b91565b91505092915050565b600060208284031215611c1757611c16611877565b5b600082013567ffffffffffffffff811115611c3557611c3461187c565b5b611c4184828501611bd3565b91505092915050565b6000819050919050565b611c5d81611c4a565b8114611c6857600080fd5b50565b600081359050611c7a81611c54565b92915050565b611c8981611a86565b8114611c9457600080fd5b50565b600081359050611ca681611c80565b92915050565b600061ffff82169050919050565b611cc381611cac565b8114611cce57600080fd5b50565b600081359050611ce081611cba565b92915050565b600080600080600060a08688031215611d0257611d01611877565b5b6000611d10888289016119bb565b9550506020611d2188828901611c6b565b9450506040611d3288828901611c97565b9350506060611d4388828901611cd1565b9250506080611d5488828901611c97565b9150509295509295909350565b611d6a81611c4a565b82525050565b6000602082019050611d856000830184611d61565b92915050565b611d9481611906565b82525050565b6000602082019050611daf6000830184611d8b565b92915050565b600060208284031215611dcb57611dca611877565b5b6000611dd98482850161192f565b91505092915050565b60008060208385031215611df957611df8611877565b5b600083013567ffffffffffffffff811115611e1757611e1661187c565b5b611e2385828601611890565b92509250509250929050565b60008115159050919050565b611e4481611e2f565b82525050565b600060e082019050611e5f600083018a611e3b565b611e6c6020830189611e3b565b611e796040830188611d8b565b611e866060830187611843565b611e936080830186611843565b611ea060a0830185611843565b611ead60c0830184611843565b98975050505050505050565b6000819050919050565b6000611ede611ed9611ed4846118e6565b611eb9565b6118e6565b9050919050565b6000611ef082611ec3565b9050919050565b6000611f0282611ee5565b9050919050565b611f1281611ef7565b82525050565b6000602082019050611f2d6000830184611f09565b92915050565b600060208284031215611f4957611f48611877565b5b6000611f57848285016119bb565b91505092915050565b600081519050919050565b600082825260208201905092915050565b60005b83811015611f9a578082015181840152602081019050611f7f565b60008484015250505050565b6000611fb182611f60565b611fbb8185611f6b565b9350611fcb818560208601611f7c565b611fd481611ac5565b840191505092915050565b60006060820190508181036000830152611ff98186611fa6565b90506120086020830185611d8b565b6120156040830184611e3b565b949350505050565b61202681611cac565b82525050565b6000602082019050612041600083018461201d565b92915050565b7f6d61746368496420726571756972656400000000000000000000000000000000600082015250565b600061207d601083611f6b565b915061208882612047565b602082019050919050565b600060208201905081810360008301526120ac81612070565b9050919050565b7f77696e6e65722072657175697265640000000000000000000000000000000000600082015250565b60006120e9600f83611f6b565b91506120f4826120b3565b602082019050919050565b60006020820190508181036000830152612118816120dc565b9050919050565b600081905092915050565b6000612136838561211f565b9350612143838584611b82565b82840190509392505050565b600061215c82848661212a565b91508190509392505050565b7f4c6f6f7420616c72656164792072657175657374656400000000000000000000600082015250565b600061219e601683611f6b565b91506121a982612168565b602082019050919050565b600060208201905081810360008301526121cd81612191565b9050919050565b7f565246207375624964206e6f7420736574000000000000000000000000000000600082015250565b600061220a601183611f6b565b9150612215826121d4565b602082019050919050565b60006020820190508181036000830152612239816121fd565b9050919050565b7f565246206b657948617368206e6f742073657400000000000000000000000000600082015250565b6000612276601383611f6b565b915061228182612240565b602082019050919050565b600060208201905081810360008301526122a581612269565b9050919050565b7f436f6f7264696e61746f72206e6f742073657400000000000000000000000000600082015250565b60006122e2601383611f6b565b91506122ed826122ac565b602082019050919050565b60006020820190508181036000830152612311816122d5565b9050919050565b61232181611c4a565b82525050565b61233081611839565b82525050565b61233f81611cac565b82525050565b61234e81611a86565b82525050565b600081519050919050565b600082825260208201905092915050565b600061237b82612354565b612385818561235f565b9350612395818560208601611f7c565b61239e81611ac5565b840191505092915050565b600060c0830160008301516123c16000860182612318565b5060208301516123d46020860182612327565b5060408301516123e76040860182612336565b5060608301516123fa6060860182612345565b50608083015161240d6080860182612345565b5060a083015184820360a08601526124258282612370565b9150508091505092915050565b6000602082019050818103600083015261244c81846123a9565b905092915050565b600081519050612463816119a4565b92915050565b60006020828403121561247f5761247e611877565b5b600061248d84828501612454565b91505092915050565b7f4e487b7100000000000000000000000000000000000000000000000000000000600052602260045260246000fd5b600060028204905060018216806124dd57607f821691505b6020821081036124f0576124ef612496565b5b50919050565b60008190508160005260206000209050919050565b60006020601f8301049050919050565b600082821b905092915050565b6000600883026125587fffffffffffffffffffffffffffffffffffffffffffffffffffffffffffffffff8261251b565b612562868361251b565b95508019841693508086168417925050509392505050565b600061259561259061258b84611839565b611eb9565b611839565b9050919050565b6000819050919050565b6125af8361257a565b6125c36125bb8261259c565b848454612528565b825550505050565b600090565b6125d86125cb565b6125e38184846125a6565b505050565b5b81811015612607576125fc6000826125d0565b6001810190506125e9565b5050565b601f82111561264c5761261d816124f6565b6126268461250b565b81016020851015612635578190505b6126496126418561250b565b8301826125e8565b50505b505050565b600082821c905092915050565b600061266f60001984600802612651565b1980831691505092915050565b6000612688838361265e565b9150826002028217905092915050565b6126a182611f60565b67ffffffffffffffff8111156126ba576126b9611ad6565b5b6126c482546124c5565b6126cf82828561260b565b600060209050601f83116001811461270257600084156126f0578287015190505b6126fa858261267c565b865550612762565b601f198416612710866124f6565b60005b8281101561273857848901518255600182019150602085019450602081019050612713565b868310156127555784890151612751601f89168261265e565b8355505b6001600288020188555050505b505050505050565b600060408201905061277f6000830185611d8b565b61278c6020830184611d8b565b9392505050565b7f4d7573742062652070726f706f736564206f776e657200000000000000000000600082015250565b60006127c9601683611f6b565b91506127d482612793565b602082019050919050565b600060208201905081810360008301526127f8816127bc565b9050919050565b60006060820190506128146000830186611d8b565b6128216020830185611d8b565b61282e6040830184611d8b565b949350505050565b7f4c6f6f74206e6f742066756c66696c6c65642079657400000000000000000000600082015250565b600061286c601683611f6b565b915061287782612836565b602082019050919050565b6000602082019050818103600083015261289b8161285f565b9050919050565b7f4c6f6f7420616c726561647920636c61696d6564000000000000000000000000600082015250565b60006128d8601483611f6b565b91506128e3826128a2565b602082019050919050565b60006020820190508181036000830152612907816128cb565b9050919050565b7f4f6e6c792077696e6e65722063616e20636c61696d0000000000000000000000600082015250565b6000612944601583611f6b565b915061294f8261290e565b602082019050919050565b6000602082019050818103600083015261297381612937565b9050919050565b7f4f6e6c792063616c6c61626c65206279206f776e657200000000000000000000600082015250565b60006129b0601683611f6b565b91506129bb8261297a565b602082019050919050565b600060208201905081810360008301526129df816129a3565b9050919050565b6129ef81611e2f565b82525050565b602082016000820151612a0b60008501826129e6565b50505050565b6000602082019050612a2660008301846129f5565b92915050565b7f556e6b6e6f776e20726571756573740000000000000000000000000000000000600082015250565b6000612a62600f83611f6b565b9150612a6d82612a2c565b602082019050919050565b60006020820190508181036000830152612a9181612a55565b9050919050565b7f4e487b7100000000000000000000000000000000000000000000000000000000600052603260045260246000fd5b7f4e487b7100000000000000000000000000000000000000000000000000000000600052601260045260246000fd5b6000612b0182611839565b9150612b0c83611839565b925082612b1c57612b1b612ac7565b5b828206905092915050565b7f4e487b7100000000000000000000000000000000000000000000000000000000600052601160045260246000fd5b6000612b6182611839565b9150612b6c83611839565b9250828201905080821115612b8457612b83612b27565b5b92915050565b6000612b9582611f60565b612b9f818561211f565b9350612baf818560208601611f7c565b80840191505092915050565b6000612bc78284612b8a565b915081905092915050565b6000606082019050612be76000830186611843565b612bf46020830185611843565b612c016040830184611843565b949350505050565b7f43616e6e6f74207472616e7366657220746f2073656c66000000000000000000600082015250565b6000612c3f601783611f6b565b9150612c4a82612c09565b602082019050919050565b60006020820190508181036000830152612c6e81612c32565b905091905056fea2646970667358221220930a402c0cffdedffaaecebbe955cf92ac28df94f31bfb248e21482d79430a5e64736f6c63430008140033",
  "linkReferences": {},
  "deployedLinkReferences": {}
}