{
  "_format": "hh-sol-artifact-1",
  "contractName": "ArenaOracle",
  "sourceName": "contracts/ArenaOracle.sol",
  "abi": [
    {
      "inputs": [],
      "stateMutability": "nonpayable",
      "type": "constructor"
    },
    {
      "inputs": [
        {
          "internalType": "address",
          "name": "owner",
          "type": "address"
        }
      ],
      "name": "OwnableInvalidOwner",
      "type": "error"
    },
    {
      "inputs": [
        {
          "internalType": "address",
          "name": "account",
          "type": "address"
        }
      ],
      "name": "OwnableUnauthorizedAccount",
      "type": "error"
    },
    {
      "anonymous": false,
      "inputs": [
        {
          "indexed": true,
          "internalType": "string",
          "name": "matchId",
          "type": "string"
        },
        {
          "indexed": true,
          "internalType": "address",
          "name": "winner",
          "type": "address"
        },
        {
          "indexed": true,
          "internalType": "address",
          "name": "loser",
          "type": "address"
        },
        {
          "indexed": false,
          "internalType": "uint256",
          "name": "timestamp",
          "type": "uint256"
        }
      ],
      "name": "MatchRecorded",
      "type": "event"
    },
    {
      "anonymous": false,
      "inputs": [
        {
          "indexed": true,
          "internalType": "address",
          "name": "previousOwner",
          "type": "address"
        },
        {
          "indexed": true,
          "internalType": "address",
          "name": "newOwner",
          "type": "address"
        }
      ],
      "name": "OwnershipTransferred",
      "type": "event"
    },
    {
      "inputs": [
        {
          "internalType": "string",
          "name": "",
          "type": "string"
        }
      ],
      "name": "isMatchRecorded",
      "outputs": [
        {
          "internalType": "bool",
          "name": "",
          "type": "bool"
        }
      ],
      "stateMutability": "view",
      "type": "function"
    },
    {
      "inputs": [],
      "name": "owner",
      "outputs": [
        {
          "internalType": "address",
          "name": "",
          "type": "address"
        }
      ],
      "stateMutability": "view",
      "type": "function"
    },
    {
      "inputs": [
        {
          "internalType": "string",
          "name": "matchId",
          "type": "string"
        },
        {
          "internalType": "address",
          "name": "winner",
          "type": "address"
        },
        {
          "internalType": "address",
          "name": "loser",
          "type": "address"
        }
      ],
      "name": "recordMatchResult",
      "outputs": [],
      "stateMutability": "nonpayable",
      "type": "function"
    },
    {
      "inputs": [],
      "name": "renounceOwnership",
      "outputs": [],
      "stateMutability": "nonpayable",
      "type": "function"
    },
    {
      "inputs": [
        {
          "internalType": "address",
          "name": "newOwner",
          "type": "address"
        }
      ],
      "name": "transferOwnership",
      "outputs": [],
      "stateMutability": "nonpayable",
      "type": "function"
    }
  ],
  "bytecode": "0x608060405234801561001057600080fd5b5033600073ffffffffffffffffffffffffffffffffffffffff168173ffffffffffffffffffffffffffffffffffffffff16036100845760006040517f1e4fbdf700000000000000000000000000000000000000000000000000000000815260040161007b919061019e565b60405180910390fd5b6100938161009960201b60201c565b506101b9565b60008060009054906101000a900473ffffffffffffffffffffffffffffffffffffffff169050816000806101000a81548173ffffffffffffffffffffffffffffffffffffffff021916908373ffffffffffffffffffffffffffffffffffffffff1602179055508173ffffffffffffffffffffffffffffffffffffffff168173ffffffffffffffffffffffffffffffffffffffff167f8be0079c531659141344cd1fd0a4f28419497f9722a3daafe3b4186f6b6457e060405160405180910390a35050565b600073ffffffffffffffffffffffffffffffffffffffff82169050919050565b60006101888261015d565b9050919050565b6101988161017d565b82525050565b60006020820190506101b3600083018461018f565b92915050565b610ae3806101c86000396000f3fe608060405234801561001057600080fd5b50600436106100575760003560e01c8063715018a61461005c5780638da5cb5b14610066578063b64108f614610084578063c12ce5ed146100b4578063f2fde38b146100d0575b600080fd5b6100646100ec565b005b61006e610100565b60405161007b91906105ba565b60405180910390f35b61009e6004803603810190610099919061072f565b610129565b6040516100ab9190610793565b60405180910390f35b6100ce60048036038101906100c991906107da565b61015f565b005b6100ea60048036038101906100e59190610849565b6103a0565b005b6100f4610426565b6100fe60006104ad565b565b60008060009054906101000a900473ffffffffffffffffffffffffffffffffffffffff16905090565b6001818051602081018201805184825260208301602085012081835280955050505050506000915054906101000a900460ff1681565b610167610426565b60018360405161017791906108e7565b908152602001604051809103902060009054906101000a900460ff16156101d3576040517f08c379a00000000000000000000000000000000000000000000000000000000081526004016101ca9061095b565b60405180910390fd5b600073ffffffffffffffffffffffffffffffffffffffff168273ffffffffffffffffffffffffffffffffffffffff161415801561023d5750600073ffffffffffffffffffffffffffffffffffffffff168173ffffffffffffffffffffffffffffffffffffffff1614155b61027c576040517f08c379a0000000000000000000000000000000000000000000000000000000008152600401610273906109c7565b60405180910390fd5b8073ffffffffffffffffffffffffffffffffffffffff168273ffffffffffffffffffffffffffffffffffffffff16036102ea576040517f08c379a00000000000000000000000000000000000000000000000000000000081526004016102e190610a59565b60405180910390fd5b600180846040516102fb91906108e7565b908152602001604051809103902060006101000a81548160ff0219169083151502179055508073ffffffffffffffffffffffffffffffffffffffff168273ffffffffffffffffffffffffffffffffffffffff168460405161035c91906108e7565b60405180910390207f21cb79eb5036ae007d766d0a8059d6cc03abf8c82247aed671724f4702be5349426040516103939190610a92565b60405180910390a4505050565b6103a8610426565b600073ffffffffffffffffffffffffffffffffffffffff168173ffffffffffffffffffffffffffffffffffffffff160361041a5760006040517f1e4fbdf700000000000000000000000000000000000000000000000000000000815260040161041191906105ba565b60405180910390fd5b610423816104ad565b50565b61042e610571565b73ffffffffffffffffffffffffffffffffffffffff1661044c610100565b73ffffffffffffffffffffffffffffffffffffffff16146104ab5761046f610571565b6040517f118cdaa70000000000000000000000000000000000000000000000000000000081526004016104a291906105ba565b60405180910390fd5b565b60008060009054906101000a900473ffffffffffffffffffffffffffffffffffffffff169050816000806101000a81548173ffffffffffffffffffffffffffffffffffffffff021916908373ffffffffffffffffffffffffffffffffffffffff1602179055508173ffffffffffffffffffffffffffffffffffffffff168173ffffffffffffffffffffffffffffffffffffffff167f8be0079c531659141344cd1fd0a4f28419497f9722a3daafe3b4186f6b6457e060405160405180910390a35050565b600033905090565b600073ffffffffffffffffffffffffffffffffffffffff82169050919050565b60006105a482610579565b9050919050565b6105b481610599565b82525050565b60006020820190506105cf60008301846105ab565b92915050565b6000604051905090565b600080fd5b600080fd5b600080fd5b600080fd5b6000601f19601f8301169050919050565b7f4e487b7100000000000000000000000000000000000000000000000000000000600052604160045260246000fd5b61063c826105f3565b810181811067ffffffffffffffff8211171561065b5761065a610604565b5b80604052505050565b600061066e6105d5565b905061067a8282610633565b919050565b600067ffffffffffffffff82111561069a57610699610604565b5b6106a3826105f3565b9050602081019050919050565b82818337600083830152505050565b60006106d26106cd8461067f565b610664565b9050828152602081018484840111156106ee576106ed6105ee565b5b6106f98482856106b0565b509392505050565b600082601f830112610716576107156105e9565b5b81356107268482602086016106bf565b91505092915050565b600060208284031215610745576107446105df565b5b600082013567ffffffffffffffff811115610763576107626105e4565b5b61076f84828501610701565b91505092915050565b60008115159050919050565b61078d81610778565b82525050565b60006020820190506107a86000830184610784565b92915050565b6107b781610599565b81146107c257600080fd5b50565b6000813590506107d4816107ae565b92915050565b6000806000606084860312156107f3576107f26105df565b5b600084013567ffffffffffffffff811115610811576108106105e4565b5b61081d86828701610701565b935050602061082e868287016107c5565b925050604061083f868287016107c5565b9150509250925092565b60006020828403121561085f5761085e6105df565b5b600061086d848285016107c5565b91505092915050565b600081519050919050565b600081905092915050565b60005b838110156108aa57808201518184015260208101905061088f565b60008484015250505050565b60006108c182610876565b6108cb8185610881565b93506108db81856020860161088c565b80840191505092915050565b60006108f382846108b6565b915081905092915050565b600082825260208201905092915050565b7f4d6174636820616c7265616479207265636f7264656400000000000000000000600082015250565b60006109456016836108fe565b91506109508261090f565b602082019050919050565b6000602082019050818103600083015261097481610938565b9050919050565b7f496e76616c6964206167656e7420616464726573736573000000000000000000600082015250565b60006109b16017836108fe565b91506109bc8261097b565b602082019050919050565b600060208201905081810360008301526109e0816109a4565b9050919050565b7f57696e6e657220616e64206c6f7365722063616e6e6f7420626520746865207360008201527f616d650000000000000000000000000000000000000000000000000000000000602082015250565b6000610a436023836108fe565b9150610a4e826109e7565b604082019050919050565b60006020820190508181036000830152610a7281610a36565b9050919050565b6000819050919050565b610a8c81610a79565b82525050565b6000602082019050610aa76000830184610a83565b9291505056fea2646970667358221220b73c04ae388f867aa1500108a8e0b9b6b2eb9fde196114e26ebaa8fa6c9ca82d64736f6c63430008140033",
  "linkReferences": {},
  "deployedLinkReferences": {}
}